{
  "_format": "hh-sol-artifact-1",
  "contractName": "Fintrust",
  "sourceName": "contracts/Fintrust.sol",
  "abi": [
    {
      "inputs": [],
      "stateMutability": "nonpayable",
      "type": "constructor"
    },
    {
      "inputs": [
        {
          "internalType": "uint256",
          "name": "campaignId",
          "type": "uint256"
        }
      ],
      "name": "InactiveCampaign",
      "type": "error"
    },
    {
      "inputs": [
        {
          "internalType": "uint256",
          "name": "amount",
          "type": "uint256"
        }
      ],
      "name": "InvalidAmount",
      "type": "error"
    },
    {
      "inputs": [
        {
          "internalType": "uint256",
          "name": "campaignId",
          "type": "uint256"
        },
        {
          "internalType": "address",
          "name": "creator",
          "type": "address"
        }
      ],
      "name": "InvalidState",
      "type": "error"
    },
    {
      "inputs": [
        {
          "internalType": "uint256",
          "name": "campaignId",
          "type": "uint256"
        }
      ],
      "name": "TargetReached",
      "type": "error"
    },
    {
      "inputs": [
        {
          "internalType": "address",
          "name": "sender",
          "type": "address"
        }
      ],
      "name": "Unauthorized",
      "type": "error"
    },
    {
      "anonymous": false,
      "inputs": [
        {
          "indexed": true,
          "internalType": "uint256",
          "name": "id",
          "type": "uint256"
        },
        {
          "indexed": true,
          "internalType": "address",
          "name": "initiator",
          "type": "address"
        }
      ],
      "name": "CampaignCreated",
      "type": "event"
    },
    {
      "anonymous": false,
      "inputs": [
        {
          "indexed": true,
          "internalType": "uint256",
          "name": "id",
          "type": "uint256"
        },
        {
          "indexed": true,
          "internalType": "uint256",
          "name": "timeStamp",
          "type": "uint256"
        }
      ],
      "name": "CampaignEnded",
      "type": "event"
    },
    {
      "anonymous": false,
      "inputs": [
        {
          "indexed": true,
          "internalType": "uint256",
          "name": "id",
          "type": "uint256"
        },
        {
          "indexed": true,
          "internalType": "address",
          "name": "creator",
          "type": "address"
        },
        {
          "indexed": true,
          "internalType": "address",
          "name": "depositor",
          "type": "address"
        }
      ],
      "name": "Deposit",
      "type": "event"
    },
    {
      "anonymous": false,
      "inputs": [
        {
          "indexed": false,
          "internalType": "address",
          "name": "account",
          "type": "address"
        }
      ],
      "name": "Paused",
      "type": "event"
    },
    {
      "anonymous": false,
      "inputs": [
        {
          "indexed": true,
          "internalType": "bytes32",
          "name": "role",
          "type": "bytes32"
        },
        {
          "indexed": true,
          "internalType": "bytes32",
          "name": "previousAdminRole",
          "type": "bytes32"
        },
        {
          "indexed": true,
          "internalType": "bytes32",
          "name": "newAdminRole",
          "type": "bytes32"
        }
      ],
      "name": "RoleAdminChanged",
      "type": "event"
    },
    {
      "anonymous": false,
      "inputs": [
        {
          "indexed": true,
          "internalType": "bytes32",
          "name": "role",
          "type": "bytes32"
        },
        {
          "indexed": true,
          "internalType": "address",
          "name": "account",
          "type": "address"
        },
        {
          "indexed": true,
          "internalType": "address",
          "name": "sender",
          "type": "address"
        }
      ],
      "name": "RoleGranted",
      "type": "event"
    },
    {
      "anonymous": false,
      "inputs": [
        {
          "indexed": true,
          "internalType": "bytes32",
          "name": "role",
          "type": "bytes32"
        },
        {
          "indexed": true,
          "internalType": "address",
          "name": "account",
          "type": "address"
        },
        {
          "indexed": true,
          "internalType": "address",
          "name": "sender",
          "type": "address"
        }
      ],
      "name": "RoleRevoked",
      "type": "event"
    },
    {
      "anonymous": false,
      "inputs": [
        {
          "indexed": true,
          "internalType": "uint256",
          "name": "id",
          "type": "uint256"
        },
        {
          "indexed": true,
          "internalType": "address",
          "name": "creator",
          "type": "address"
        },
        {
          "indexed": true,
          "internalType": "address",
          "name": "sender",
          "type": "address"
        }
      ],
      "name": "SignerConfirmed",
      "type": "event"
    },
    {
      "anonymous": false,
      "inputs": [
        {
          "indexed": true,
          "internalType": "uint256",
          "name": "id",
          "type": "uint256"
        },
        {
          "indexed": true,
          "internalType": "address",
          "name": "creator",
          "type": "address"
        },
        {
          "indexed": true,
          "internalType": "address",
          "name": "sender",
          "type": "address"
        }
      ],
      "name": "SignerRejected",
      "type": "event"
    },
    {
      "anonymous": false,
      "inputs": [
        {
          "indexed": false,
          "internalType": "address",
          "name": "account",
          "type": "address"
        }
      ],
      "name": "Unpaused",
      "type": "event"
    },
    {
      "inputs": [],
      "name": "DEFAULT_ADMIN_ROLE",
      "outputs": [
        {
          "internalType": "bytes32",
          "name": "",
          "type": "bytes32"
        }
      ],
      "stateMutability": "view",
      "type": "function"
    },
    {
      "inputs": [],
      "name": "PAUSER_ROLE",
      "outputs": [
        {
          "internalType": "bytes32",
          "name": "",
          "type": "bytes32"
        }
      ],
      "stateMutability": "view",
      "type": "function"
    },
    {
      "inputs": [],
      "name": "SIGNER_ROLE",
      "outputs": [
        {
          "internalType": "bytes32",
          "name": "",
          "type": "bytes32"
        }
      ],
      "stateMutability": "view",
      "type": "function"
    },
    {
      "inputs": [
        {
          "internalType": "address",
          "name": "creator",
          "type": "address"
        }
      ],
      "name": "allCampaigns",
      "outputs": [
        {
          "components": [
            {
              "internalType": "bool",
              "name": "isActive",
              "type": "bool"
            },
            {
              "internalType": "bool",
              "name": "withdrawInitiated",
              "type": "bool"
            },
            {
              "internalType": "uint8",
              "name": "confirmations",
              "type": "uint8"
            },
            {
              "internalType": "uint8",
              "name": "signatoriesCount",
              "type": "uint8"
            },
            {
              "internalType": "enum Fintrust.State",
              "name": "state",
              "type": "uint8"
            },
            {
              "internalType": "address",
              "name": "initiator",
              "type": "address"
            },
            {
              "internalType": "uint128",
              "name": "startTimeStamp",
              "type": "uint128"
            },
            {
              "internalType": "uint128",
              "name": "endTimeStamp",
              "type": "uint128"
            },
            {
              "internalType": "uint256",
              "name": "id",
              "type": "uint256"
            },
            {
              "internalType": "uint256",
              "name": "amount",
              "type": "uint256"
            },
            {
              "internalType": "uint256",
              "name": "balance",
              "type": "uint256"
            },
            {
              "internalType": "uint256",
              "name": "deposited",
              "type": "uint256"
            },
            {
              "internalType": "string",
              "name": "url",
              "type": "string"
            },
            {
              "internalType": "address[]",
              "name": "signatories",
              "type": "address[]"
            }
          ],
          "internalType": "struct Fintrust.Campaign[]",
          "name": "",
          "type": "tuple[]"
        }
      ],
      "stateMutability": "view",
      "type": "function"
    },
    {
      "inputs": [
        {
          "internalType": "address",
          "name": "signatory",
          "type": "address"
        }
      ],
      "name": "allRef",
      "outputs": [
        {
          "components": [
            {
              "internalType": "address",
              "name": "initiator",
              "type": "address"
            },
            {
              "internalType": "bool",
              "name": "hasVoted",
              "type": "bool"
            },
            {
              "internalType": "bool",
              "name": "withdrawInitiated",
              "type": "bool"
            },
            {
              "internalType": "uint256",
              "name": "id",
              "type": "uint256"
            },
            {
              "internalType": "string",
              "name": "url",
              "type": "string"
            }
          ],
          "internalType": "struct Fintrust.CampaignRef[]",
          "name": "",
          "type": "tuple[]"
        }
      ],
      "stateMutability": "view",
      "type": "function"
    },
    {
      "inputs": [
        {
          "internalType": "address",
          "name": "signatory",
          "type": "address"
        }
      ],
      "name": "allWithdrawRequest",
      "outputs": [
        {
          "components": [
            {
              "internalType": "bool",
              "name": "isActive",
              "type": "bool"
            },
            {
              "internalType": "bool",
              "name": "withdrawInitiated",
              "type": "bool"
            },
            {
              "internalType": "uint8",
              "name": "confirmations",
              "type": "uint8"
            },
            {
              "internalType": "uint8",
              "name": "signatoriesCount",
              "type": "uint8"
            },
            {
              "internalType": "enum Fintrust.State",
              "name": "state",
              "type": "uint8"
            },
            {
              "internalType": "address",
              "name": "initiator",
              "type": "address"
            },
            {
              "internalType": "uint128",
              "name": "startTimeStamp",
              "type": "uint128"
            },
            {
              "internalType": "uint128",
              "name": "endTimeStamp",
              "type": "uint128"
            },
            {
              "internalType": "uint256",
              "name": "id",
              "type": "uint256"
            },
            {
              "internalType": "uint256",
              "name": "amount",
              "type": "uint256"
            },
            {
              "internalType": "uint256",
              "name": "balance",
              "type": "uint256"
            },
            {
              "internalType": "uint256",
              "name": "deposited",
              "type": "uint256"
            },
            {
              "internalType": "string",
              "name": "url",
              "type": "string"
            },
            {
              "internalType": "address[]",
              "name": "signatories",
              "type": "address[]"
            }
          ],
          "internalType": "struct Fintrust.Campaign[]",
          "name": "campaigns",
          "type": "tuple[]"
        }
      ],
      "stateMutability": "view",
      "type": "function"
    },
    {
      "inputs": [
        {
          "internalType": "address",
          "name": "creator",
          "type": "address"
        },
        {
          "internalType": "uint256",
          "name": "_campaignId",
          "type": "uint256"
        }
      ],
      "name": "confirmWithdraw",
      "outputs": [],
      "stateMutability": "nonpayable",
      "type": "function"
    },
    {
      "inputs": [
        {
          "internalType": "string",
          "name": "_url",
          "type": "string"
        },
        {
          "internalType": "uint256",
          "name": "_amount",
          "type": "uint256"
        },
        {
          "internalType": "address[]",
          "name": "_signatories",
          "type": "address[]"
        }
      ],
      "name": "createCampaign",
      "outputs": [],
      "stateMutability": "payable",
      "type": "function"
    },
    {
      "inputs": [
        {
          "internalType": "address",
          "name": "creator",
          "type": "address"
        },
        {
          "internalType": "uint256",
          "name": "_campaignId",
          "type": "uint256"
        },
        {
          "internalType": "uint256",
          "name": "amount",
          "type": "uint256"
        }
      ],
      "name": "deposit",
      "outputs": [],
      "stateMutability": "payable",
      "type": "function"
    },
    {
      "inputs": [],
      "name": "getBalance",
      "outputs": [
        {
          "internalType": "uint256",
          "name": "",
          "type": "uint256"
        }
      ],
      "stateMutability": "view",
      "type": "function"
    },
    {
      "inputs": [
        {
          "internalType": "uint256",
          "name": "_campaignId",
          "type": "uint256"
        },
        {
          "internalType": "address",
          "name": "creator",
          "type": "address"
        }
      ],
      "name": "getCampaign",
      "outputs": [
        {
          "components": [
            {
              "internalType": "bool",
              "name": "isActive",
              "type": "bool"
            },
            {
              "internalType": "bool",
              "name": "withdrawInitiated",
              "type": "bool"
            },
            {
              "internalType": "uint8",
              "name": "confirmations",
              "type": "uint8"
            },
            {
              "internalType": "uint8",
              "name": "signatoriesCount",
              "type": "uint8"
            },
            {
              "internalType": "enum Fintrust.State",
              "name": "state",
              "type": "uint8"
            },
            {
              "internalType": "address",
              "name": "initiator",
              "type": "address"
            },
            {
              "internalType": "uint128",
              "name": "startTimeStamp",
              "type": "uint128"
            },
            {
              "internalType": "uint128",
              "name": "endTimeStamp",
              "type": "uint128"
            },
            {
              "internalType": "uint256",
              "name": "id",
              "type": "uint256"
            },
            {
              "internalType": "uint256",
              "name": "amount",
              "type": "uint256"
            },
            {
              "internalType": "uint256",
              "name": "balance",
              "type": "uint256"
            },
            {
              "internalType": "uint256",
              "name": "deposited",
              "type": "uint256"
            },
            {
              "internalType": "string",
              "name": "url",
              "type": "string"
            },
            {
              "internalType": "address[]",
              "name": "signatories",
              "type": "address[]"
            }
          ],
          "internalType": "struct Fintrust.Campaign",
          "name": "",
          "type": "tuple"
        }
      ],
      "stateMutability": "view",
      "type": "function"
    },
    {
      "inputs": [
        {
          "internalType": "bytes32",
          "name": "role",
          "type": "bytes32"
        }
      ],
      "name": "getRoleAdmin",
      "outputs": [
        {
          "internalType": "bytes32",
          "name": "",
          "type": "bytes32"
        }
      ],
      "stateMutability": "view",
      "type": "function"
    },
    {
      "inputs": [
        {
          "internalType": "bytes32",
          "name": "role",
          "type": "bytes32"
        },
        {
          "internalType": "address",
          "name": "account",
          "type": "address"
        }
      ],
      "name": "grantRole",
      "outputs": [],
      "stateMutability": "nonpayable",
      "type": "function"
    },
    {
      "inputs": [
        {
          "internalType": "bytes32",
          "name": "role",
          "type": "bytes32"
        },
        {
          "internalType": "address",
          "name": "account",
          "type": "address"
        }
      ],
      "name": "hasRole",
      "outputs": [
        {
          "internalType": "bool",
          "name": "",
          "type": "bool"
        }
      ],
      "stateMutability": "view",
      "type": "function"
    },
    {
      "inputs": [],
      "name": "pause",
      "outputs": [],
      "stateMutability": "nonpayable",
      "type": "function"
    },
    {
      "inputs": [],
      "name": "paused",
      "outputs": [
        {
          "internalType": "bool",
          "name": "",
          "type": "bool"
        }
      ],
      "stateMutability": "view",
      "type": "function"
    },
    {
      "inputs": [
        {
          "internalType": "address",
          "name": "creator",
          "type": "address"
        },
        {
          "internalType": "uint256",
          "name": "_campaignId",
          "type": "uint256"
        }
      ],
      "name": "rejectWithdraw",
      "outputs": [],
      "stateMutability": "nonpayable",
      "type": "function"
    },
    {
      "inputs": [
        {
          "internalType": "bytes32",
          "name": "role",
          "type": "bytes32"
        },
        {
          "internalType": "address",
          "name": "account",
          "type": "address"
        }
      ],
      "name": "renounceRole",
      "outputs": [],
      "stateMutability": "nonpayable",
      "type": "function"
    },
    {
      "inputs": [
        {
          "internalType": "uint256",
          "name": "_campaignId",
          "type": "uint256"
        }
      ],
      "name": "requestWithdraw",
      "outputs": [],
      "stateMutability": "nonpayable",
      "type": "function"
    },
    {
      "inputs": [
        {
          "internalType": "bytes32",
          "name": "role",
          "type": "bytes32"
        },
        {
          "internalType": "address",
          "name": "account",
          "type": "address"
        }
      ],
      "name": "revokeRole",
      "outputs": [],
      "stateMutability": "nonpayable",
      "type": "function"
    },
    {
      "inputs": [
        {
          "internalType": "bytes4",
          "name": "interfaceId",
          "type": "bytes4"
        }
      ],
      "name": "supportsInterface",
      "outputs": [
        {
          "internalType": "bool",
          "name": "",
          "type": "bool"
        }
      ],
      "stateMutability": "view",
      "type": "function"
    },
    {
      "inputs": [],
      "name": "unpause",
      "outputs": [],
      "stateMutability": "nonpayable",
      "type": "function"
    },
    {
      "inputs": [
        {
          "internalType": "uint256",
          "name": "_campaignId",
          "type": "uint256"
        },
        {
          "internalType": "uint256",
          "name": "amount",
          "type": "uint256"
        }
      ],
      "name": "withdraw",
      "outputs": [],
      "stateMutability": "nonpayable",
      "type": "function"
    }
  ],
  "bytecode": "0x60806040523480156200001157600080fd5b5060008060006101000a81548160ff021916908315150217905550620000416000801b336200007960201b60201c565b620000737f65d7a28e3265b37a6474929f336521b332c1681b933f6cb9f3376673440d862a336200007960201b60201c565b620001dd565b6200008b82826200016a60201b60201c565b6200016657600180600084815260200190815260200160002060000160008373ffffffffffffffffffffffffffffffffffffffff1673ffffffffffffffffffffffffffffffffffffffff16815260200190815260200160002060006101000a81548160ff0219169083151502179055506200010b620001d560201b60201c565b73ffffffffffffffffffffffffffffffffffffffff168173ffffffffffffffffffffffffffffffffffffffff16837f2f8788117e7eff1d82e926ec794901d17c78024a50270940304540a733656f0d60405160405180910390a45b5050565b60006001600084815260200190815260200160002060000160008373ffffffffffffffffffffffffffffffffffffffff1673ffffffffffffffffffffffffffffffffffffffff16815260200190815260200160002060009054906101000a900460ff16905092915050565b600033905090565b6155a080620001ed6000396000f3fe6080604052600436106101405760003560e01c806344683845116100b657806395d46d001161006f57806395d46d001461043c578063996e31d814610479578063a1ebf35d146104a2578063a217fddf146104cd578063d547741f146104f8578063e63ab1e91461052157610140565b8063446838451461033b5780635c975abb14610378578063745400c9146103a35780638456cb59146103cc57806391d14854146103e35780639512646a1461042057610140565b8063248a9ca311610108578063248a9ca31461024357806329d36c46146102805780632f2ff15d146102a957806336568abe146102d25780633f4ba83a146102fb578063441a3e701461031257610140565b806301ffc9a7146101455780630488a2cf146101825780630efe6a8b146101bf57806312065fe0146101db5780631a01173514610206575b600080fd5b34801561015157600080fd5b5061016c60048036038101906101679190613f4e565b61054c565b6040516101799190613f96565b60405180910390f35b34801561018e57600080fd5b506101a960048036038101906101a4919061400f565b6105c6565b6040516101b69190614470565b60405180910390f35b6101d960048036038101906101d491906144be565b610942565b005b3480156101e757600080fd5b506101f06110a3565b6040516101fd9190614520565b60405180910390f35b34801561021257600080fd5b5061022d6004803603810190610228919061453b565b6110ab565b60405161023a91906146b0565b60405180910390f35b34801561024f57600080fd5b5061026a60048036038101906102659190614708565b611403565b6040516102779190614744565b60405180910390f35b34801561028c57600080fd5b506102a760048036038101906102a2919061475f565b611423565b005b3480156102b557600080fd5b506102d060048036038101906102cb919061479f565b6114b5565b005b3480156102de57600080fd5b506102f960048036038101906102f4919061479f565b6114d6565b005b34801561030757600080fd5b50610310611559565b005b34801561031e57600080fd5b50610339600480360381019061033491906147df565b61158e565b005b34801561034757600080fd5b50610362600480360381019061035d919061400f565b611e7e565b60405161036f9190614470565b60405180910390f35b34801561038457600080fd5b5061038d612437565b60405161039a9190613f96565b60405180910390f35b3480156103af57600080fd5b506103ca60048036038101906103c5919061481f565b61244d565b005b3480156103d857600080fd5b506103e16125e8565b005b3480156103ef57600080fd5b5061040a6004803603810190610405919061479f565b61261d565b6040516104179190613f96565b60405180910390f35b61043a60048036038101906104359190614907565b612688565b005b34801561044857600080fd5b50610463600480360381019061045e919061400f565b612d6d565b6040516104709190614ad4565b60405180910390f35b34801561048557600080fd5b506104a0600480360381019061049b919061475f565b612f33565b005b3480156104ae57600080fd5b506104b7612ffe565b6040516104c49190614744565b60405180910390f35b3480156104d957600080fd5b506104e2613022565b6040516104ef9190614744565b60405180910390f35b34801561050457600080fd5b5061051f600480360381019061051a919061479f565b613029565b005b34801561052d57600080fd5b5061053661304a565b6040516105439190614744565b60405180910390f35b60007f7965db0b000000000000000000000000000000000000000000000000000000007bffffffffffffffffffffffffffffffffffffffffffffffffffffffff1916827bffffffffffffffffffffffffffffffffffffffffffffffffffffffff191614806105bf57506105be8261306e565b5b9050919050565b6060600360008373ffffffffffffffffffffffffffffffffffffffff1673ffffffffffffffffffffffffffffffffffffffff168152602001908152602001600020805480602002602001604051908101604052809291908181526020016000905b828210156109375783829060005260206000209060080201604051806101c00160405290816000820160009054906101000a900460ff161515151581526020016000820160019054906101000a900460ff161515151581526020016000820160029054906101000a900460ff1660ff1660ff1681526020016000820160039054906101000a900460ff1660ff1660ff1681526020016000820160049054906101000a900460ff1660038111156106e0576106df614093565b5b60038111156106f2576106f1614093565b5b81526020016000820160059054906101000a900473ffffffffffffffffffffffffffffffffffffffff1673ffffffffffffffffffffffffffffffffffffffff1673ffffffffffffffffffffffffffffffffffffffff1681526020016001820160009054906101000a90046fffffffffffffffffffffffffffffffff166fffffffffffffffffffffffffffffffff166fffffffffffffffffffffffffffffffff1681526020016001820160109054906101000a90046fffffffffffffffffffffffffffffffff166fffffffffffffffffffffffffffffffff166fffffffffffffffffffffffffffffffff1681526020016002820154815260200160038201548152602001600482015481526020016005820154815260200160068201805461081890614b25565b80601f016020809104026020016040519081016040528092919081815260200182805461084490614b25565b80156108915780601f1061086657610100808354040283529160200191610891565b820191906000526020600020905b81548152906001019060200180831161087457829003601f168201915b505050505081526020016007820180548060200260200160405190810160405280929190818152602001828054801561091f57602002820191906000526020600020905b8160009054906101000a900473ffffffffffffffffffffffffffffffffffffffff1673ffffffffffffffffffffffffffffffffffffffff16815260200190600101908083116108d5575b50505050508152505081526020019060010190610627565b505050509050919050565b803414610984576040517f08c379a000000000000000000000000000000000000000000000000000000000815260040161097b90614bb4565b60405180910390fd5b6000600360008573ffffffffffffffffffffffffffffffffffffffff1673ffffffffffffffffffffffffffffffffffffffff168152602001908152602001600020905060008184815481106109dc576109db614bd4565b5b9060005260206000209060080201604051806101c00160405290816000820160009054906101000a900460ff161515151581526020016000820160019054906101000a900460ff161515151581526020016000820160029054906101000a900460ff1660ff1660ff1681526020016000820160039054906101000a900460ff1660ff1660ff1681526020016000820160049054906101000a900460ff166003811115610a8b57610a8a614093565b5b6003811115610a9d57610a9c614093565b5b81526020016000820160059054906101000a900473ffffffffffffffffffffffffffffffffffffffff1673ffffffffffffffffffffffffffffffffffffffff1673ffffffffffffffffffffffffffffffffffffffff1681526020016001820160009054906101000a90046fffffffffffffffffffffffffffffffff166fffffffffffffffffffffffffffffffff166fffffffffffffffffffffffffffffffff1681526020016001820160109054906101000a90046fffffffffffffffffffffffffffffffff166fffffffffffffffffffffffffffffffff166fffffffffffffffffffffffffffffffff16815260200160028201548152602001600382015481526020016004820154815260200160058201548152602001600682018054610bc390614b25565b80601f0160208091040260200160405190810160405280929190818152602001828054610bef90614b25565b8015610c3c5780601f10610c1157610100808354040283529160200191610c3c565b820191906000526020600020905b815481529060010190602001808311610c1f57829003601f168201915b5050505050815260200160078201805480602002602001604051908101604052809291908181526020018280548015610cca57602002820191906000526020600020905b8160009054906101000a900473ffffffffffffffffffffffffffffffffffffffff1673ffffffffffffffffffffffffffffffffffffffff1681526020019060010190808311610c80575b505050505081525050905060016003811115610ce957610ce8614093565b5b81608001516003811115610d0057610cff614093565b5b14610d40576040517f08c379a0000000000000000000000000000000000000000000000000000000008152600401610d3790614c29565b60405180910390fd5b8060000151610d8657836040517ff2e9320b000000000000000000000000000000000000000000000000000000008152600401610d7d9190614520565b60405180910390fd5b80610120015181610160015110610e0557600281608001906003811115610db057610daf614093565b5b90816003811115610dc457610dc3614093565b5b81525050836040517f9444c91d000000000000000000000000000000000000000000000000000000008152600401610dfc9190614520565b60405180910390fd5b3373ffffffffffffffffffffffffffffffffffffffff168160a0015173ffffffffffffffffffffffffffffffffffffffff16857fa3d2cbcb90e0658235d4ba62aed9a50c231df9bc5bbfb74c95badbc798f38d1a60405160405180910390a4348161014001818151610e779190614c78565b91508181525050348161016001818151610e919190614c78565b9150818152505080828581548110610eac57610eab614bd4565b5b906000526020600020906008020160008201518160000160006101000a81548160ff02191690831515021790555060208201518160000160016101000a81548160ff02191690831515021790555060408201518160000160026101000a81548160ff021916908360ff16021790555060608201518160000160036101000a81548160ff021916908360ff16021790555060808201518160000160046101000a81548160ff02191690836003811115610f6757610f66614093565b5b021790555060a08201518160000160056101000a81548173ffffffffffffffffffffffffffffffffffffffff021916908373ffffffffffffffffffffffffffffffffffffffff16021790555060c08201518160010160006101000a8154816fffffffffffffffffffffffffffffffff02191690836fffffffffffffffffffffffffffffffff16021790555060e08201518160010160106101000a8154816fffffffffffffffffffffffffffffffff02191690836fffffffffffffffffffffffffffffffff160217905550610100820151816002015561012082015181600301556101408201518160040155610160820151816005015561018082015181600601908051906020019061107a929190613cb1565b506101a0820151816007019080519060200190611098929190613d37565b509050505050505050565b600047905090565b6110b3613dc1565b600360008373ffffffffffffffffffffffffffffffffffffffff1673ffffffffffffffffffffffffffffffffffffffff168152602001908152602001600020838154811061110457611103614bd4565b5b9060005260206000209060080201604051806101c00160405290816000820160009054906101000a900460ff161515151581526020016000820160019054906101000a900460ff161515151581526020016000820160029054906101000a900460ff1660ff1660ff1681526020016000820160039054906101000a900460ff1660ff1660ff1681526020016000820160049054906101000a900460ff1660038111156111b3576111b2614093565b5b60038111156111c5576111c4614093565b5b81526020016000820160059054906101000a900473ffffffffffffffffffffffffffffffffffffffff1673ffffffffffffffffffffffffffffffffffffffff1673ffffffffffffffffffffffffffffffffffffffff1681526020016001820160009054906101000a90046fffffffffffffffffffffffffffffffff166fffffffffffffffffffffffffffffffff166fffffffffffffffffffffffffffffffff1681526020016001820160109054906101000a90046fffffffffffffffffffffffffffffffff166fffffffffffffffffffffffffffffffff166fffffffffffffffffffffffffffffffff168152602001600282015481526020016003820154815260200160048201548152602001600582015481526020016006820180546112eb90614b25565b80601f016020809104026020016040519081016040528092919081815260200182805461131790614b25565b80156113645780601f1061133957610100808354040283529160200191611364565b820191906000526020600020905b81548152906001019060200180831161134757829003601f168201915b50505050508152602001600782018054806020026020016040519081016040528092919081815260200182805480156113f257602002820191906000526020600020905b8160009054906101000a900473ffffffffffffffffffffffffffffffffffffffff1673ffffffffffffffffffffffffffffffffffffffff16815260200190600101908083116113a8575b505050505081525050905092915050565b600060016000838152602001908152602001600020600101549050919050565b600061142f83836130d8565b90503373ffffffffffffffffffffffffffffffffffffffff168160000160059054906101000a900473ffffffffffffffffffffffffffffffffffffffff1673ffffffffffffffffffffffffffffffffffffffff16837f1f29e6b93248b40abc43baa875e1e223cfbffbc58d44f7343e74af1cd0feee4c60405160405180910390a4505050565b6114be82611403565b6114c78161367e565b6114d18383613692565b505050565b6114de613772565b73ffffffffffffffffffffffffffffffffffffffff168173ffffffffffffffffffffffffffffffffffffffff161461154b576040517f08c379a000000000000000000000000000000000000000000000000000000000815260040161154290614d40565b60405180910390fd5b611555828261377a565b5050565b7f65d7a28e3265b37a6474929f336521b332c1681b933f6cb9f3376673440d862a6115838161367e565b61158b61385c565b50565b6000600360003373ffffffffffffffffffffffffffffffffffffffff1673ffffffffffffffffffffffffffffffffffffffff168152602001908152602001600020905060008184815481106115e6576115e5614bd4565b5b9060005260206000209060080201604051806101c00160405290816000820160009054906101000a900460ff161515151581526020016000820160019054906101000a900460ff161515151581526020016000820160029054906101000a900460ff1660ff1660ff1681526020016000820160039054906101000a900460ff1660ff1660ff1681526020016000820160049054906101000a900460ff16600381111561169557611694614093565b5b60038111156116a7576116a6614093565b5b81526020016000820160059054906101000a900473ffffffffffffffffffffffffffffffffffffffff1673ffffffffffffffffffffffffffffffffffffffff1673ffffffffffffffffffffffffffffffffffffffff1681526020016001820160009054906101000a90046fffffffffffffffffffffffffffffffff166fffffffffffffffffffffffffffffffff166fffffffffffffffffffffffffffffffff1681526020016001820160109054906101000a90046fffffffffffffffffffffffffffffffff166fffffffffffffffffffffffffffffffff166fffffffffffffffffffffffffffffffff168152602001600282015481526020016003820154815260200160048201548152602001600582015481526020016006820180546117cd90614b25565b80601f01602080910402602001604051908101604052809291908181526020018280546117f990614b25565b80156118465780601f1061181b57610100808354040283529160200191611846565b820191906000526020600020905b81548152906001019060200180831161182957829003601f168201915b50505050508152602001600782018054806020026020016040519081016040528092919081815260200182805480156118d457602002820191906000526020600020905b8160009054906101000a900473ffffffffffffffffffffffffffffffffffffffff1673ffffffffffffffffffffffffffffffffffffffff168152602001906001019080831161188a575b50505050508152505090508060a0015173ffffffffffffffffffffffffffffffffffffffff163373ffffffffffffffffffffffffffffffffffffffff161461195357336040517f8e4a23d600000000000000000000000000000000000000000000000000000000815260040161194a9190614d6f565b60405180910390fd5b6001600381111561196757611966614093565b5b8160800151600381111561197e5761197d614093565b5b141580156119b557506002600381111561199b5761199a614093565b5b816080015160038111156119b2576119b1614093565b5b14155b156119f95783336040517f26508b5d0000000000000000000000000000000000000000000000000000000081526004016119f0929190614d8a565b60405180910390fd5b8060200151611a3d576040517f08c379a0000000000000000000000000000000000000000000000000000000008152600401611a3490614dff565b60405180910390fd5b806060015160ff16816040015160ff1614611a8f57336040517f8e4a23d6000000000000000000000000000000000000000000000000000000008152600401611a869190614d6f565b60405180910390fd5b828161014001511015611ad7576040517f08c379a0000000000000000000000000000000000000000000000000000000008152600401611ace90614e6b565b60405180910390fd5b60008160200190151590811515815250506000816040019060ff16908160ff168152505060026003811115611b0f57611b0e614093565b5b81608001516003811115611b2657611b25614093565b5b1415611b7857600083826101400151611b3f9190614e8b565b1415611b7757600381608001906003811115611b5e57611b5d614093565b5b90816003811115611b7257611b71614093565b5b815250505b5b828161014001818151611b8b9190614e8b565b91508181525050600381608001906003811115611bab57611baa614093565b5b90816003811115611bbf57611bbe614093565b5b8152505080828581548110611bd757611bd6614bd4565b5b906000526020600020906008020160008201518160000160006101000a81548160ff02191690831515021790555060208201518160000160016101000a81548160ff02191690831515021790555060408201518160000160026101000a81548160ff021916908360ff16021790555060608201518160000160036101000a81548160ff021916908360ff16021790555060808201518160000160046101000a81548160ff02191690836003811115611c9257611c91614093565b5b021790555060a08201518160000160056101000a81548173ffffffffffffffffffffffffffffffffffffffff021916908373ffffffffffffffffffffffffffffffffffffffff16021790555060c08201518160010160006101000a8154816fffffffffffffffffffffffffffffffff02191690836fffffffffffffffffffffffffffffffff16021790555060e08201518160010160106101000a8154816fffffffffffffffffffffffffffffffff02191690836fffffffffffffffffffffffffffffffff1602179055506101008201518160020155610120820151816003015561014082015181600401556101608201518160050155610180820151816006019080519060200190611da5929190613cb1565b506101a0820151816007019080519060200190611dc3929190613d37565b5090505060008160a0015173ffffffffffffffffffffffffffffffffffffffff1684604051611df190614eed565b60006040518083038185875af1925050503d8060008114611e2e576040519150601f19603f3d011682016040523d82523d6000602084013e611e33565b606091505b5050905080611e77576040517f08c379a0000000000000000000000000000000000000000000000000000000008152600401611e6e90614f4e565b60405180910390fd5b5050505050565b60606000600460008473ffffffffffffffffffffffffffffffffffffffff1673ffffffffffffffffffffffffffffffffffffffff168152602001908152602001600020805480602002602001604051908101604052809291908181526020016000905b8282101561203b57838290600052602060002090600302016040518060a00160405290816000820160009054906101000a900473ffffffffffffffffffffffffffffffffffffffff1673ffffffffffffffffffffffffffffffffffffffff1673ffffffffffffffffffffffffffffffffffffffff1681526020016000820160149054906101000a900460ff161515151581526020016000820160159054906101000a900460ff1615151515815260200160018201548152602001600282018054611faa90614b25565b80601f0160208091040260200160405190810160405280929190818152602001828054611fd690614b25565b80156120235780601f10611ff857610100808354040283529160200191612023565b820191906000526020600020905b81548152906001019060200180831161200657829003601f168201915b50505050508152505081526020019060010190611ee1565b5050505090506000805b825181101561242f57600083828151811061206357612062614bd4565b5b6020026020010151600001519050600084838151811061208657612085614bd4565b5b60200260200101516060015190506000600360008473ffffffffffffffffffffffffffffffffffffffff1673ffffffffffffffffffffffffffffffffffffffff16815260200190815260200160002082815481106120e7576120e6614bd4565b5b9060005260206000209060080201604051806101c00160405290816000820160009054906101000a900460ff161515151581526020016000820160019054906101000a900460ff161515151581526020016000820160029054906101000a900460ff1660ff1660ff1681526020016000820160039054906101000a900460ff1660ff1660ff1681526020016000820160049054906101000a900460ff16600381111561219657612195614093565b5b60038111156121a8576121a7614093565b5b81526020016000820160059054906101000a900473ffffffffffffffffffffffffffffffffffffffff1673ffffffffffffffffffffffffffffffffffffffff1673ffffffffffffffffffffffffffffffffffffffff1681526020016001820160009054906101000a90046fffffffffffffffffffffffffffffffff166fffffffffffffffffffffffffffffffff166fffffffffffffffffffffffffffffffff1681526020016001820160109054906101000a90046fffffffffffffffffffffffffffffffff166fffffffffffffffffffffffffffffffff166fffffffffffffffffffffffffffffffff168152602001600282015481526020016003820154815260200160048201548152602001600582015481526020016006820180546122ce90614b25565b80601f01602080910402602001604051908101604052809291908181526020018280546122fa90614b25565b80156123475780601f1061231c57610100808354040283529160200191612347565b820191906000526020600020905b81548152906001019060200180831161232a57829003601f168201915b50505050508152602001600782018054806020026020016040519081016040528092919081815260200182805480156123d557602002820191906000526020600020905b8160009054906101000a900473ffffffffffffffffffffffffffffffffffffffff1673ffffffffffffffffffffffffffffffffffffffff168152602001906001019080831161238b575b505050505081525050905080602001511561241957808786815181106123fe576123fd614bd4565b5b60200260200101819052506001856124169190614c78565b94505b505050808061242790614f6e565b915050612045565b505050919050565b60008060009054906101000a900460ff16905090565b6000600360003373ffffffffffffffffffffffffffffffffffffffff1673ffffffffffffffffffffffffffffffffffffffff168152602001908152602001600020905060008183815481106124a5576124a4614bd4565b5b90600052602060002090600802019050600160038111156124c9576124c8614093565b5b8160000160049054906101000a900460ff1660038111156124ed576124ec614093565b5b1461252d576040517f08c379a000000000000000000000000000000000000000000000000000000000815260040161252490614c29565b60405180910390fd5b8060000160019054906101000a900460ff161561257f576040517f08c379a000000000000000000000000000000000000000000000000000000000815260040161257690615003565b60405180910390fd5b60008160050154116125c6576040517f08c379a00000000000000000000000000000000000000000000000000000000081526004016125bd9061506f565b60405180910390fd5b60018160000160016101000a81548160ff021916908315150217905550505050565b7f65d7a28e3265b37a6474929f336521b332c1681b933f6cb9f3376673440d862a6126128161367e565b61261a6138be565b50565b60006001600084815260200190815260200160002060000160008373ffffffffffffffffffffffffffffffffffffffff1673ffffffffffffffffffffffffffffffffffffffff16815260200190815260200160002060009054906101000a900460ff16905092915050565b61269133613920565b6126d0576040517f08c379a00000000000000000000000000000000000000000000000000000000081526004016126c7906150db565b60405180910390fd5b6101f483101561271757826040517f3728b83d00000000000000000000000000000000000000000000000000000000815260040161270e9190614520565b60405180910390fd5b600382829050108061272c575060fa82829050115b1561276c576040517f08c379a000000000000000000000000000000000000000000000000000000000815260040161276390615147565b60405180910390fd5b6000600360003373ffffffffffffffffffffffffffffffffffffffff1673ffffffffffffffffffffffffffffffffffffffff1681526020019081526020016000209050600081805490509050600084849050905060606000604051806101c00160405280600115158152602001600015158152602001600060ff1681526020018460ff1681526020016001600381111561280957612808614093565b5b81526020013373ffffffffffffffffffffffffffffffffffffffff168152602001426fffffffffffffffffffffffffffffffff16815260200160006fffffffffffffffffffffffffffffffff16815260200185815260200189815260200160008152602001600081526020018b8b8080601f016020809104026020016040519081016040528093929190818152602001838380828437600081840152601f19601f8201169050808301925050505050505081526020018381525090508481908060018154018082558091505060019003906000526020600020906008020160009091909190915060008201518160000160006101000a81548160ff02191690831515021790555060208201518160000160016101000a81548160ff02191690831515021790555060408201518160000160026101000a81548160ff021916908360ff16021790555060608201518160000160036101000a81548160ff021916908360ff16021790555060808201518160000160046101000a81548160ff0219169083600381111561299d5761299c614093565b5b021790555060a08201518160000160056101000a81548173ffffffffffffffffffffffffffffffffffffffff021916908373ffffffffffffffffffffffffffffffffffffffff16021790555060c08201518160010160006101000a8154816fffffffffffffffffffffffffffffffff02191690836fffffffffffffffffffffffffffffffff16021790555060e08201518160010160106101000a8154816fffffffffffffffffffffffffffffffff02191690836fffffffffffffffffffffffffffffffff1602179055506101008201518160020155610120820151816003015561014082015181600401556101608201518160050155610180820151816006019080519060200190612ab0929190613cb1565b506101a0820151816007019080519060200190612ace929190613d37565b5050506000878780806020026020016040519081016040528093929190818152602001838360200280828437600081840152601f19601f82011690508083019250505050505050905060005b8151811015612d16576000allC828281518110612b3857612b37614bd4565b5b602002602001015190503373ffffffffffffffffffffffffffffffffffffffff168173ffffffffffffffffffffffffffffffffffffffff161415612b7b57600080fd5b612b8481613920565b612b8d57600080fd5b60006040518060a001604052808660a0015173ffffffffffffffffffffffffffffffffffffffff168152602001600015158152602001600015158152602001866101000151815260200186610180015181525090506000600460008473ffffffffffffffffffffffffffffffffffffffff1673ffffffffffffffffffffffffffffffffffffffff16815260200190815260200160002090508082908060018154018082558091505060019003906000526020600020906003020160009091909190915060008201518160000160006101000a81548173ffffffffffffffffffffffffffffffffffffffff021916908373ffffffffffffffffffffffffffffffffffffffff16021790555060208201518160000160146101000a81548160ff02191690831515021790555060408201518160000160156101000a81548160ff021916908315150217905550606082015181600101556080820151816002019080519060200190612cfd929190613cb1565b5050505050508080612d0e90614f6e565b915050612b1a565b503373ffffffffffffffffffffffffffffffffffffffff168261010001517f633109eec20320eded000fc1e2634211aa7e92ba3f5b15faf6dcdafca05094e460405160405180910390a35050505050505050505050565b6060600460008373ffffffffffffffffffffffffffffffffffffffff1673ffffffffffffffffffffffffffffffffffffffff168152602001908152602001600020805480602002602001604051908101604052809291908181526020016000905b82821015612f2857838290600052602060002090600302016040518060a00160405290816000820160009054906101000a900473ffffffffffffffffffffffffffffffffffffffff1673ffffffffffffffffffffffffffffffffffffffff1673ffffffffffffffffffffffffffffffffffffffff1681526020016000820160149054906101000a900460ff161515151581526020016000820160159054906101000a900460ff1615151515815260200160018201548152602001600282018054612e9790614b25565b80601f0160208091040260200160405190810160405280929190818152602001828054612ec390614b25565b8015612f105780601f10612ee557610100808354040283529160200191612f10565b820191906000526020600020905b815481529060010190602001808311612ef357829003601f168201915b50505050508152505081526020019060010190612dce565b505050509050919050565b6000612f3f83836130d8565b90503373ffffffffffffffffffffffffffffffffffffffff168160000160059054906101000a900473ffffffffffffffffffffffffffffffffffffffff1673ffffffffffffffffffffffffffffffffffffffff16837f3ffcd92ab0feb4b6871585fae9ce50f9ef84e1149eff4f2d573bfe390c37f05a60405160405180910390a460018160000160028282829054906101000a900460ff16612fe19190615167565b92506101000a81548160ff021916908360ff160217905550505050565b7fe2f4eaae4a9751e85a3e4a7b9587827a877f29914755229b07a7b2da98285f7081565b6000801b81565b61303282611403565b61303b8161367e565b613045838361377a565b505050565b7f65d7a28e3265b37a6474929f336521b332c1681b933f6cb9f3376673440d862a81565b60007f01ffc9a7000000000000000000000000000000000000000000000000000000007bffffffffffffffffffffffffffffffffffffffffffffffffffffffff1916827bffffffffffffffffffffffffffffffffffffffffffffffffffffffff1916149050919050565b600080600360008573ffffffffffffffffffffffffffffffffffffffff1673ffffffffffffffffffffffffffffffffffffffff1681526020019081526020016000209050600081848154811061313157613130614bd4565b5b906000526020600020906008020190506001600381111561315557613154614093565b5b8160000160049054906101000a900460ff16600381111561317957613178614093565b5b146131bd5783856040517f26508b5d0000000000000000000000000000000000000000000000000000000081526004016131b4929190614d8a565b60405180910390fd5b8060000160019054906101000a900460ff1661320e576040517f08c379a000000000000000000000000000000000000000000000000000000000815260040161320590614dff565b60405180910390fd5b6000600460003373ffffffffffffffffffffffffffffffffffffffff1673ffffffffffffffffffffffffffffffffffffffff168152602001908152602001600020805480602002602001604051908101604052809291908181526020016000905b828210156133c957838290600052602060002090600302016040518060a00160405290816000820160009054906101000a900473ffffffffffffffffffffffffffffffffffffffff1673ffffffffffffffffffffffffffffffffffffffff1673ffffffffffffffffffffffffffffffffffffffff1681526020016000820160149054906101000a900460ff161515151581526020016000820160159054906101000a900460ff161515151581526020016001820154815260200160028201805461333890614b25565b80601f016020809104026020016040519081016040528092919081815260200182805461336490614b25565b80156133b15780601f10613386576101008083540402835291602001916133b1565b820191906000526020600020905b81548152906001019060200180831161339457829003601f168201915b5050505050815250508152602001906001019061326f565b50505050905060006133d9613e86565b600080600090505b84518110156134c557856002015485828151811061340257613401614bd4565b5b60200260200101516060015114801561348857508560000160059054906101000a900473ffffffffffffffffffffffffffffffffffffffff1673ffffffffffffffffffffffffffffffffffffffff1685828151811061346457613463614bd4565b5b60200260200101516000015173ffffffffffffffffffffffffffffffffffffffff16145b156134b257600193508481815181106134a4576134a3614bd4565b5b602002602001015192508091505b80806134bd90614f6e565b9150506133e1565b508261350857336040517f8e4a23d60000000000000000000000000000000000000000000000000000000081526004016134ff9190614d6f565b60405180910390fd5b81602001511561354d576040517f08c379a0000000000000000000000000000000000000000000000000000000008152600401613544906151ea565b60405180910390fd5b600182602001901515908115158152505081600460003373ffffffffffffffffffffffffffffffffffffffff1673ffffffffffffffffffffffffffffffffffffffff16815260200190815260200160002082815481106135b0576135af614bd4565b5b906000526020600020906003020160008201518160000160006101000a81548173ffffffffffffffffffffffffffffffffffffffff021916908373ffffffffffffffffffffffffffffffffffffffff16021790555060208201518160000160146101000a81548160ff02191690831515021790555060408201518160000160156101000a81548160ff02191690831515021790555060608201518160010155608082015181600201908051906020019061366b929190613cb1565b5090505084965050505050505092915050565b61368f8161368a613772565b613945565b50565b61369c828261261d565b61376e57600180600084815260200190815260200160002060000160008373ffffffffffffffffffffffffffffffffffffffff1673ffffffffffffffffffffffffffffffffffffffff16815260200190815260200160002060006101000a81548160ff021916908315150217905550613713613772565b73ffffffffffffffffffffffffffffffffffffffff168173ffffffffffffffffffffffffffffffffffffffff16837f2f8788117e7eff1d82e926ec794901d17c78024a50270940304540a733656f0d60405160405180910390a45b5050565b600033905090565b613784828261261d565b156138585760006001600084815260200190815260200160002060000160008373ffffffffffffffffffffffffffffffffffffffff1673ffffffffffffffffffffffffffffffffffffffff16815260200190815260200160002060006101000a81548160ff0219169083151502179055506137fd613772565b73ffffffffffffffffffffffffffffffffffffffff168173ffffffffffffffffffffffffffffffffffffffff16837ff6391f5c32d9c69d2a47ea670b442974b53935d1edc7fd64eb21e047a839171b60405160405180910390a45b5050565b6138646139e2565b60008060006101000a81548160ff0219169083151502179055507f5db9ee0a495bf2e6ff9c91a7834c1ba4fdd244a5e8aa4e537bd38aeae4b073aa6138a7613772565b6040516138b49190614d6f565b60405180910390a1565b6138c6613a2b565b60016000806101000a81548160ff0219169083151502179055507f62e78cea01bee320cd4e420270b5ea74000d11b0c9f74754ebdbfc544b05a258613909613772565b6040516139169190614d6f565b60405180910390a1565b600080823b9050600081141561393a576001915050613940565b60009150505b919050565b61394f828261261d565b6139de576139748173ffffffffffffffffffffffffffffffffffffffff166014613a75565b6139828360001c6020613a75565b6040516020016139939291906152de565b6040516020818303038152906040526040517f08c379a00000000000000000000000000000000000000000000000000000000081526004016139d59190615351565b60405180910390fd5b5050565b6139ea612437565b613a29576040517f08c379a0000000000000000000000000000000000000000000000000000000008152600401613a20906153bf565b60405180910390fd5b565b613a33612437565b15613a73576040517f08c379a0000000000000000000000000000000000000000000000000000000008152600401613a6a9061542b565b60405180910390fd5b565b606060006002836002613a88919061544b565b613a929190614c78565b67ffffffffffffffff811115613aab57613aaa6154a5565b5b6040519080825280601f01601f191660200182016040528015613add5781602001600182028036833780820191505090505b5090507f300000000000000000000000000000000000000000000000000000000000000081600081518110613b1557613b14614bd4565b5b60200101907effffffffffffffffffffffffffffffffffffffffffffffffffffffffffffff1916908160001a9053507f780000000000000000000000000000000000000000000000000000000000000081600181518110613b7957613b78614bd4565b5b60200101907effffffffffffffffffffffffffffffffffffffffffffffffffffffffffffff1916908160001a90535060006001846002613bb9919061544b565b613bc39190614c78565b90505b6001811115613c63577f3031323334353637383961626364656600000000000000000000000000000000600f861660108110613c0557613c04614bd4565b5b1a60f81b828281518110613c1c57613c1b614bd4565b5b60200101907effffffffffffffffffffffffffffffffffffffffffffffffffffffffffffff1916908160001a905350600485901c945080613c5c906154d4565b9050613bc6565b5060008414613ca7576040517f08c379a0000000000000000000000000000000000000000000000000000000008152600401613c9e9061554a565b60405180910390fd5b8091505092915050565b828054613cbd90614b25565b90600052602060002090601f016020900481019282613cdf5760008555613d26565b82601f10613cf857805160ff1916838001178555613d26565b82800160010185558215613d26579182015b82811115613d25578251825591602001919060010190613d0a565b5b509050613d339190613ecf565b5090565b828054828255906000526020600020908101928215613db0579160200282015b82811115613daf5782518260006101000a81548173ffffffffffffffffffffffffffffffffffffffff021916908373ffffffffffffffffffffffffffffffffffffffff16021790555091602001919060010190613d57565b5b509050613dbd9190613ecf565b5090565b604051806101c00160405280600015158152602001600015158152602001600060ff168152602001600060ff16815260200160006003811115613e0757613e06614093565b5b8152602001600073ffffffffffffffffffffffffffffffffffffffff16815260200160006fffffffffffffffffffffffffffffffff16815260200160006fffffffffffffffffffffffffffffffff1681526020016000815260200160008152602001600081526020016000815260200160608152602001606081525090565b6040518060a00160405280600073ffffffffffffffffffffffffffffffffffffffff16815260200160001515815260200160001515815260200160008152602001606081525090565b5b80821115613ee8576000816000905550600101613ed0565b5090565b600080fd5b600080fd5b60007fffffffff0000000000000000000000000000000000000000000000000000000082169050919050565b613f2b81613ef6565b8114613f3657600080fd5b50565b600081359050613f4881613f22565b92915050565b600060208284031215613f6457613f63613eec565b5b6000613f7284828501613f39565b91505092915050565b60008115159050919050565b613f9081613f7b565b82525050565b6000602082019050613fab6000830184613f87565b92915050565b600073ffffffffffffffffffffffffffffffffffffffff82169050919050565b6000613fdc82613fb1565b9050919050565b613fec81613fd1565b8114613ff757600080fd5b50565b60008135905061400981613fe3565b92915050565b60006020828403121561402557614024613eec565b5b600061403384828501613ffa565b91505092915050565b600081519050919050565b600082825260208201905092915050565b6000819050602082019050919050565b61407181613f7b565b82525050565b600060ff82169050919050565b61408d81614077565b82525050565b7f4e487b7100000000000000000000000000000000000000000000000000000000600052602160045260246000fd5b600481106140d3576140d2614093565b5b50565b60008190506140e4826140c2565b919050565b60006140f4826140d6565b9050919050565b614104816140e9565b82525050565b61411381613fd1565b82525050565b60006fffffffffffffffffffffffffffffffff82169050919050565b61413e81614119565b82525050565b6000819050919050565b61415781614144565b82525050565b600081519050919050565b600082825260208201905092915050565b60005b8381101561419757808201518184015260208101905061417c565b838111156141a6576000848401525b50505050565b6000601f19601f8301169050919050565b60006141c88261415d565b6141d28185614168565b93506141e2818560208601614179565b6141eb816141ac565b840191505092915050565b600081519050919050565b600082825260208201905092915050565b6000819050602082019050919050565b600061422e838361410a565b60208301905092915050565b6000602082019050919050565b6000614252826141f6565b61425c8185614201565b935061426783614212565b8060005b8381101561429857815161427f8882614222565b975061428a8361423a565b92505060018101905061426b565b5085935050505092915050565b60006101c0830160008301516142be6000860182614068565b5060208301516142d16020860182614068565b5060408301516142e46040860182614084565b5060608301516142f76060860182614084565b50608083015161430a60808601826140fb565b5060a083015161431d60a086018261410a565b5060c083015161433060c0860182614135565b5060e083015161434360e0860182614135565b5061010083015161435861010086018261414e565b5061012083015161436d61012086018261414e565b5061014083015161438261014086018261414e565b5061016083015161439761016086018261414e565b506101808301518482036101808601526143b182826141bd565b9150506101a08301518482036101a08601526143cd8282614247565b9150508091505092915050565b60006143e683836142a5565b905092915050565b6000602082019050919050565b60006144068261403c565b6144108185614047565b93508360208202850161442285614058565b8060005b8581101561445e578484038952815161443f85826143da565b945061444a836143ee565b925060208a01995050600181019050614426565b50829750879550505050505092915050565b6000602082019050818103600083015261448a81846143fb565b905092915050565b61449b81614144565b81146144a657600080fd5b50565b6000813590506144b881614492565b92915050565b6000806000606084860312156144d7576144d6613eec565b5b60006144e586828701613ffa565b93505060206144f6868287016144a9565b9250506040614507868287016144a9565b9150509250925092565b61451a81614144565b82525050565b60006020820190506145356000830184614511565b92915050565b6000806040838503121561455257614551613eec565b5b6000614560858286016144a9565b925050602061457185828601613ffa565b9150509250929050565b60006101c0830160008301516145946000860182614068565b5060208301516145a76020860182614068565b5060408301516145ba6040860182614084565b5060608301516145cd6060860182614084565b5060808301516145e060808601826140fb565b5060a08301516145f360a086018261410a565b5060c083015161460660c0860182614135565b5060e083015161461960e0860182614135565b5061010083015161462e61010086018261414e565b5061012083015161464361012086018261414e565b5061014083015161465861014086018261414e565b5061016083015161466d61016086018261414e565b5061018083015184820361018086015261468782826141bd565b9150506101a08301518482036101a08601526146a38282614247565b9150508091505092915050565b600060208201905081810360008301526146ca818461457b565b905092915050565b6000819050919050565b6146e5816146d2565b81146146f057600080fd5b50565b600081359050614702816146dc565b92915050565b60006020828403121561471e5761471d613eec565b5b600061472c848285016146f3565b91505092915050565b61473e816146d2565b82525050565b60006020820190506147596000830184614735565b92915050565b6000806040838503121561477657614775613eec565b5b600061478485828601613ffa565b9250506020614795858286016144a9565b9150509250929050565b600080604083850312156147b6576147b5613eec565b5b60006147c4858286016146f3565b92505060206147d585828601613ffa565b9150509250929050565b600080604083850312156147f6576147f5613eec565b5b6000614804858286016144a9565b9250506020614815858286016144a9565b9150509250929050565b60006020828403121561483557614834613eec565b5b6000614843848285016144a9565b91505092915050565b600080fd5b600080fd5b600080fd5b60008083601f8401126148715761487061484c565b5b8235905067ffffffffffffffff81111561488e5761488d614851565b5b6020830191508360018202830111156148aa576148a9614856565b5b9250929050565b60008083601f8401126148c7576148c661484c565b5b8235905067ffffffffffffffff8111156148e4576148e3614851565b5b602083019150836020820283011115614900576148ff614856565b5b9250929050565b60008060008060006060868803121561492357614922613eec565b5b600086013567ffffffffffffffff81111561494157614940613ef1565b5b61494d8882890161485b565b95509550506020614960888289016144a9565b935050604086013567ffffffffffffffff81111561498157614980613ef1565b5b61498d888289016148b1565b92509250509295509295909350565b600081519050919050565b600082825260208201905092915050565b6000819050602082019050919050565b600060a0830160008301516149e0600086018261410a565b5060208301516149f36020860182614068565b506040830151614a066040860182614068565b506060830151614a19606086018261414e565b5060808301518482036080860152614a3182826141bd565b9150508091505092915050565b6000614a4a83836149c8565b905092915050565b6000602082019050919050565b6000614a6a8261499c565b614a7481856149a7565b935083602082028501614a86856149b8565b8060005b85811015614ac25784840389528151614aa38582614a3e565b9450614aae83614a52565b925060208a01995050600181019050614a8a565b50829750879550505050505092915050565b60006020820190508181036000830152614aee8184614a5f565b905092915050565b7f4e487b7100000000000000000000000000000000000000000000000000000000600052602260045260246000fd5b60006002820490506001821680614b3d57607f821691505b60208210811415614b5157614b50614af6565b5b50919050565b600082825260208201905092915050565b7f496e76616c696420616d6f756e74000000000000000000000000000000000000600082015250565b6000614b9e600e83614b57565b9150614ba982614b68565b602082019050919050565b60006020820190508181036000830152614bcd81614b91565b9050919050565b7f4e487b7100000000000000000000000000000000000000000000000000000000600052603260045260246000fd5b50565b6000614c13600083614b57565b9150614c1e82614c03565b600082019050919050565b60006020820190508181036000830152614c4281614c06565b9050919050565b7f4e487b7100000000000000000000000000000000000000000000000000000000600052601160045260246000fd5b6000614c8382614144565b9150614c8e83614144565b9250827fffffffffffffffffffffffffffffffffffffffffffffffffffffffffffffffff03821115614cc357614cc2614c49565b5b828201905092915050565b7f416363657373436f6e74726f6c3a2063616e206f6e6c792072656e6f756e636560008201527f20726f6c657320666f722073656c660000000000000000000000000000000000602082015250565b6000614d2a602f83614b57565b9150614d3582614cce565b604082019050919050565b60006020820190508181036000830152614d5981614d1d565b9050919050565b614d6981613fd1565b82525050565b6000602082019050614d846000830184614d60565b92915050565b6000604082019050614d9f6000830185614511565b614dac6020830184614d60565b9392505050565b7f63616d706169676e207769746864726177206e6f742072657175657374656400600082015250565b6000614de9601f83614b57565b9150614df482614db3565b602082019050919050565b60006020820190508181036000830152614e1881614ddc565b9050919050565b7f496e73756666696369656e742046756e64730000000000000000000000000000600082015250565b6000614e55601283614b57565b9150614e6082614e1f565b602082019050919050565b60006020820190508181036000830152614e8481614e48565b9050919050565b6000614e9682614144565b9150614ea183614144565b925082821015614eb457614eb3614c49565b5b828203905092915050565b600081905092915050565b6000614ed7600083614ebf565b9150614ee282614c03565b600082019050919050565b6000614ef882614eca565b9150819050919050565b7f4572726f7220696e2053656e6400000000000000000000000000000000000000600082015250565b6000614f38600d83614b57565b9150614f4382614f02565b602082019050919050565b60006020820190508181036000830152614f6781614f2b565b9050919050565b6000614f7982614144565b91507fffffffffffffffffffffffffffffffffffffffffffffffffffffffffffffffff821415614fac57614fab614c49565b5b600182019050919050565b7f416c726561647920726571756573746564000000000000000000000000000000600082015250565b6000614fed601183614b57565b9150614ff882614fb7565b602082019050919050565b6000602082019050818103600083015261501c81614fe0565b9050919050565b7f4e6f206465706f73697420796574210000000000000000000000000000000000600082015250565b6000615059600f83614b57565b915061506482615023565b602082019050919050565b600060208201905081810360008301526150888161504c565b9050919050565b7f4d7573742075736520454f410000000000000000000000000000000000000000600082015250565b60006150c5600c83614b57565b91506150d08261508f565b602082019050919050565b600060208201905081810360008301526150f4816150b8565b9050919050565b7f496e76616c6964207369676e61746f727920636f756e74000000000000000000600082015250565b6000615131601783614b57565b915061513c826150fb565b602082019050919050565b6000602082019050818103600083015261516081615124565b9050919050565b600061517282614077565b915061517d83614077565b92508260ff0382111561519357615192614c49565b5b828201905092915050565b7f416c726561647920766f74656400000000000000000000000000000000000000600082015250565b60006151d4600d83614b57565b91506151df8261519e565b602082019050919050565b60006020820190508181036000830152615203816151c7565b9050919050565b600081905092915050565b7f416363657373436f6e74726f6c3a206163636f756e7420000000000000000000600082015250565b600061524b60178361520a565b915061525682615215565b601782019050919050565b600061526c8261415d565b615276818561520a565b9350615286818560208601614179565b80840191505092915050565b7f206973206d697373696e6720726f6c6520000000000000000000000000000000600082015250565b60006152c860118361520a565b91506152d382615292565b601182019050919050565b60006152e98261523e565b91506152f58285615261565b9150615300826152bb565b915061530c8284615261565b91508190509392505050565b60006153238261415d565b61532d8185614b57565b935061533d818560208601614179565b615346816141ac565b840191505092915050565b6000602082019050818103600083015261536b8184615318565b905092915050565b7f5061757361626c653a206e6f7420706175736564000000000000000000000000600082015250565b60006153a9601483614b57565b91506153b482615373565b602082019050919050565b600060208201905081810360008301526153d88161539c565b9050919050565b7f5061757361626c653a2070617573656400000000000000000000000000000000600082015250565b6000615415601083614b57565b9150615420826153df565b602082019050919050565b6000602082019050818103600083015261544481615408565b9050919050565b600061545682614144565b915061546183614144565b9250817fffffffffffffffffffffffffffffffffffffffffffffffffffffffffffffffff048311821515161561549a57615499614c49565b5b828202905092915050565b7f4e487b7100000000000000000000000000000000000000000000000000000000600052604160045260246000fd5b60006154df82614144565b915060008214156154f3576154f2614c49565b5b600182039050919050565b7f537472696e67733a20686578206c656e67746820696e73756666696369656e74600082015250565b6000615534602083614b57565b915061553f826154fe565b602082019050919050565b6000602082019050818103600083015261556381615527565b905091905056fea26469706673582212200aff647b2e8b2b4ac29e1543f669e129b02cb419ada2bffdff894a18b057aa8964736f6c63430008090033",
  "deployedBytecode": "0x6080604052600436106101405760003560e01c806344683845116100b657806395d46d001161006f57806395d46d001461043c578063996e31d814610479578063a1ebf35d146104a2578063a217fddf146104cd578063d547741f146104f8578063e63ab1e91461052157610140565b8063446838451461033b5780635c975abb14610378578063745400c9146103a35780638456cb59146103cc57806391d14854146103e35780639512646a1461042057610140565b8063248a9ca311610108578063248a9ca31461024357806329d36c46146102805780632f2ff15d146102a957806336568abe146102d25780633f4ba83a146102fb578063441a3e701461031257610140565b806301ffc9a7146101455780630488a2cf146101825780630efe6a8b146101bf57806312065fe0146101db5780631a01173514610206575b600080fd5b34801561015157600080fd5b5061016c60048036038101906101679190613f4e565b61054c565b6040516101799190613f96565b60405180910390f35b34801561018e57600080fd5b506101a960048036038101906101a4919061400f565b6105c6565b6040516101b69190614470565b60405180910390f35b6101d960048036038101906101d491906144be565b610942565b005b3480156101e757600080fd5b506101f06110a3565b6040516101fd9190614520565b60405180910390f35b34801561021257600080fd5b5061022d6004803603810190610228919061453b565b6110ab565b60405161023a91906146b0565b60405180910390f35b34801561024f57600080fd5b5061026a60048036038101906102659190614708565b611403565b6040516102779190614744565b60405180910390f35b34801561028c57600080fd5b506102a760048036038101906102a2919061475f565b611423565b005b3480156102b557600080fd5b506102d060048036038101906102cb919061479f565b6114b5565b005b3480156102de57600080fd5b506102f960048036038101906102f4919061479f565b6114d6565b005b34801561030757600080fd5b50610310611559565b005b34801561031e57600080fd5b50610339600480360381019061033491906147df565b61158e565b005b34801561034757600080fd5b50610362600480360381019061035d919061400f565b611e7e565b60405161036f9190614470565b60405180910390f35b34801561038457600080fd5b5061038d612437565b60405161039a9190613f96565b60405180910390f35b3480156103af57600080fd5b506103ca60048036038101906103c5919061481f565b61244d565b005b3480156103d857600080fd5b506103e16125e8565b005b3480156103ef57600080fd5b5061040a6004803603810190610405919061479f565b61261d565b6040516104179190613f96565b60405180910390f35b61043a60048036038101906104359190614907565b612688565b005b34801561044857600080fd5b50610463600480360381019061045e919061400f565b612d6d565b6040516104709190614ad4565b60405180910390f35b34801561048557600080fd5b506104a0600480360381019061049b919061475f565b612f33565b005b3480156104ae57600080fd5b506104b7612ffe565b6040516104c49190614744565b60405180910390f35b3480156104d957600080fd5b506104e2613022565b6040516104ef9190614744565b60405180910390f35b34801561050457600080fd5b5061051f600480360381019061051a919061479f565b613029565b005b34801561052d57600080fd5b5061053661304a565b6040516105439190614744565b60405180910390f35b60007f7965db0b000000000000000000000000000000000000000000000000000000007bffffffffffffffffffffffffffffffffffffffffffffffffffffffff1916827bffffffffffffffffffffffffffffffffffffffffffffffffffffffff191614806105bf57506105be8261306e565b5b9050919050565b6060600360008373ffffffffffffffffffffffffffffffffffffffff1673ffffffffffffffffffffffffffffffffffffffff168152602001908152602001600020805480602002602001604051908101604052809291908181526020016000905b828210156109375783829060005260206000209060080201604051806101c00160405290816000820160009054906101000a900460ff161515151581526020016000820160019054906101000a900460ff161515151581526020016000820160029054906101000a900460ff1660ff1660ff1681526020016000820160039054906101000a900460ff1660ff1660ff1681526020016000820160049054906101000a900460ff1660038111156106e0576106df614093565b5b60038111156106f2576106f1614093565b5b81526020016000820160059054906101000a900473ffffffffffffffffffffffffffffffffffffffff1673ffffffffffffffffffffffffffffffffffffffff1673ffffffffffffffffffffffffffffffffffffffff1681526020016001820160009054906101000a90046fffffffffffffffffffffffffffffffff166fffffffffffffffffffffffffffffffff166fffffffffffffffffffffffffffffffff1681526020016001820160109054906101000a90046fffffffffffffffffffffffffffffffff166fffffffffffffffffffffffffffffffff166fffffffffffffffffffffffffffffffff1681526020016002820154815260200160038201548152602001600482015481526020016005820154815260200160068201805461081890614b25565b80601f016020809104026020016040519081016040528092919081815260200182805461084490614b25565b80156108915780601f1061086657610100808354040283529160200191610891565b820191906000526020600020905b81548152906001019060200180831161087457829003601f168201915b505050505081526020016007820180548060200260200160405190810160405280929190818152602001828054801561091f57602002820191906000526020600020905b8160009054906101000a900473ffffffffffffffffffffffffffffffffffffffff1673ffffffffffffffffffffffffffffffffffffffff16815260200190600101908083116108d5575b50505050508152505081526020019060010190610627565b505050509050919050565b803414610984576040517f08c379a000000000000000000000000000000000000000000000000000000000815260040161097b90614bb4565b60405180910390fd5b6000600360008573ffffffffffffffffffffffffffffffffffffffff1673ffffffffffffffffffffffffffffffffffffffff168152602001908152602001600020905060008184815481106109dc576109db614bd4565b5b9060005260206000209060080201604051806101c00160405290816000820160009054906101000a900460ff161515151581526020016000820160019054906101000a900460ff161515151581526020016000820160029054906101000a900460ff1660ff1660ff1681526020016000820160039054906101000a900460ff1660ff1660ff1681526020016000820160049054906101000a900460ff166003811115610a8b57610a8a614093565b5b6003811115610a9d57610a9c614093565b5b81526020016000820160059054906101000a900473ffffffffffffffffffffffffffffffffffffffff1673ffffffffffffffffffffffffffffffffffffffff1673ffffffffffffffffffffffffffffffffffffffff1681526020016001820160009054906101000a90046fffffffffffffffffffffffffffffffff166fffffffffffffffffffffffffffffffff166fffffffffffffffffffffffffffffffff1681526020016001820160109054906101000a90046fffffffffffffffffffffffffffffffff166fffffffffffffffffffffffffffffffff166fffffffffffffffffffffffffffffffff16815260200160028201548152602001600382015481526020016004820154815260200160058201548152602001600682018054610bc390614b25565b80601f0160208091040260200160405190810160405280929190818152602001828054610bef90614b25565b8015610c3c5780601f10610c1157610100808354040283529160200191610c3c565b820191906000526020600020905b815481529060010190602001808311610c1f57829003601f168201915b5050505050815260200160078201805480602002602001604051908101604052809291908181526020018280548015610cca57602002820191906000526020600020905b8160009054906101000a900473ffffffffffffffffffffffffffffffffffffffff1673ffffffffffffffffffffffffffffffffffffffff1681526020019060010190808311610c80575b505050505081525050905060016003811115610ce957610ce8614093565b5b81608001516003811115610d0057610cff614093565b5b14610d40576040517f08c379a0000000000000000000000000000000000000000000000000000000008152600401610d3790614c29565b60405180910390fd5b8060000151610d8657836040517ff2e9320b000000000000000000000000000000000000000000000000000000008152600401610d7d9190614520565b60405180910390fd5b80610120015181610160015110610e0557600281608001906003811115610db057610daf614093565b5b90816003811115610dc457610dc3614093565b5b81525050836040517f9444c91d000000000000000000000000000000000000000000000000000000008152600401610dfc9190614520565b60405180910390fd5b3373ffffffffffffffffffffffffffffffffffffffff168160a0015173ffffffffffffffffffffffffffffffffffffffff16857fa3d2cbcb90e0658235d4ba62aed9a50c231df9bc5bbfb74c95badbc798f38d1a60405160405180910390a4348161014001818151610e779190614c78565b91508181525050348161016001818151610e919190614c78565b9150818152505080828581548110610eac57610eab614bd4565b5b906000526020600020906008020160008201518160000160006101000a81548160ff02191690831515021790555060208201518160000160016101000a81548160ff02191690831515021790555060408201518160000160026101000a81548160ff021916908360ff16021790555060608201518160000160036101000a81548160ff021916908360ff16021790555060808201518160000160046101000a81548160ff02191690836003811115610f6757610f66614093565b5b021790555060a08201518160000160056101000a81548173ffffffffffffffffffffffffffffffffffffffff021916908373ffffffffffffffffffffffffffffffffffffffff16021790555060c08201518160010160006101000a8154816fffffffffffffffffffffffffffffffff02191690836fffffffffffffffffffffffffffffffff16021790555060e08201518160010160106101000a8154816fffffffffffffffffffffffffffffffff02191690836fffffffffffffffffffffffffffffffff160217905550610100820151816002015561012082015181600301556101408201518160040155610160820151816005015561018082015181600601908051906020019061107a929190613cb1565b506101a0820151816007019080519060200190611098929190613d37565b509050505050505050565b600047905090565b6110b3613dc1565b600360008373ffffffffffffffffffffffffffffffffffffffff1673ffffffffffffffffffffffffffffffffffffffff168152602001908152602001600020838154811061110457611103614bd4565b5b9060005260206000209060080201604051806101c00160405290816000820160009054906101000a900460ff161515151581526020016000820160019054906101000a900460ff161515151581526020016000820160029054906101000a900460ff1660ff1660ff1681526020016000820160039054906101000a900460ff1660ff1660ff1681526020016000820160049054906101000a900460ff1660038111156111b3576111b2614093565b5b60038111156111c5576111c4614093565b5b81526020016000820160059054906101000a900473ffffffffffffffffffffffffffffffffffffffff1673ffffffffffffffffffffffffffffffffffffffff1673ffffffffffffffffffffffffffffffffffffffff1681526020016001820160009054906101000a90046fffffffffffffffffffffffffffffffff166fffffffffffffffffffffffffffffffff166fffffffffffffffffffffffffffffffff1681526020016001820160109054906101000a90046fffffffffffffffffffffffffffffffff166fffffffffffffffffffffffffffffffff166fffffffffffffffffffffffffffffffff168152602001600282015481526020016003820154815260200160048201548152602001600582015481526020016006820180546112eb90614b25565b80601f016020809104026020016040519081016040528092919081815260200182805461131790614b25565b80156113645780601f1061133957610100808354040283529160200191611364565b820191906000526020600020905b81548152906001019060200180831161134757829003601f168201915b50505050508152602001600782018054806020026020016040519081016040528092919081815260200182805480156113f257602002820191906000526020600020905b8160009054906101000a900473ffffffffffffffffffffffffffffffffffffffff1673ffffffffffffffffffffffffffffffffffffffff16815260200190600101908083116113a8575b505050505081525050905092915050565b600060016000838152602001908152602001600020600101549050919050565b600061142f83836130d8565b90503373ffffffffffffffffffffffffffffffffffffffff168160000160059054906101000a900473ffffffffffffffffffffffffffffffffffffffff1673ffffffffffffffffffffffffffffffffffffffff16837f1f29e6b93248b40abc43baa875e1e223cfbffbc58d44f7343e74af1cd0feee4c60405160405180910390a4505050565b6114be82611403565b6114c78161367e565b6114d18383613692565b505050565b6114de613772565b73ffffffffffffffffffffffffffffffffffffffff168173ffffffffffffffffffffffffffffffffffffffff161461154b576040517f08c379a000000000000000000000000000000000000000000000000000000000815260040161154290614d40565b60405180910390fd5b611555828261377a565b5050565b7f65d7a28e3265b37a6474929f336521b332c1681b933f6cb9f3376673440d862a6115838161367e565b61158b61385c565b50565b6000600360003373ffffffffffffffffffffffffffffffffffffffff1673ffffffffffffffffffffffffffffffffffffffff168152602001908152602001600020905060008184815481106115e6576115e5614bd4565b5b9060005260206000209060080201604051806101c00160405290816000820160009054906101000a900460ff161515151581526020016000820160019054906101000a900460ff161515151581526020016000820160029054906101000a900460ff1660ff1660ff1681526020016000820160039054906101000a900460ff1660ff1660ff1681526020016000820160049054906101000a900460ff16600381111561169557611694614093565b5b60038111156116a7576116a6614093565b5b81526020016000820160059054906101000a900473ffffffffffffffffffffffffffffffffffffffff1673ffffffffffffffffffffffffffffffffffffffff1673ffffffffffffffffffffffffffffffffffffffff1681526020016001820160009054906101000a90046fffffffffffffffffffffffffffffffff166fffffffffffffffffffffffffffffffff166fffffffffffffffffffffffffffffffff1681526020016001820160109054906101000a90046fffffffffffffffffffffffffffffffff166fffffffffffffffffffffffffffffffff166fffffffffffffffffffffffffffffffff168152602001600282015481526020016003820154815260200160048201548152602001600582015481526020016006820180546117cd90614b25565b80601f01602080910402602001604051908101604052809291908181526020018280546117f990614b25565b80156118465780601f1061181b57610100808354040283529160200191611846565b820191906000526020600020905b81548152906001019060200180831161182957829003601f168201915b50505050508152602001600782018054806020026020016040519081016040528092919081815260200182805480156118d457602002820191906000526020600020905b8160009054906101000a900473ffffffffffffffffffffffffffffffffffffffff1673ffffffffffffffffffffffffffffffffffffffff168152602001906001019080831161188a575b50505050508152505090508060a0015173ffffffffffffffffffffffffffffffffffffffff163373ffffffffffffffffffffffffffffffffffffffff161461195357336040517f8e4a23d600000000000000000000000000000000000000000000000000000000815260040161194a9190614d6f565b60405180910390fd5b6001600381111561196757611966614093565b5b8160800151600381111561197e5761197d614093565b5b141580156119b557506002600381111561199b5761199a614093565b5b816080015160038111156119b2576119b1614093565b5b14155b156119f95783336040517f26508b5d0000000000000000000000000000000000000000000000000000000081526004016119f0929190614d8a565b60405180910390fd5b8060200151611a3d576040517f08c379a0000000000000000000000000000000000000000000000000000000008152600401611a3490614dff565b60405180910390fd5b806060015160ff16816040015160ff1614611a8f57336040517f8e4a23d6000000000000000000000000000000000000000000000000000000008152600401611a869190614d6f565b60405180910390fd5b828161014001511015611ad7576040517f08c379a0000000000000000000000000000000000000000000000000000000008152600401611ace90614e6b565b60405180910390fd5b60008160200190151590811515815250506000816040019060ff16908160ff168152505060026003811115611b0f57611b0e614093565b5b81608001516003811115611b2657611b25614093565b5b1415611b7857600083826101400151611b3f9190614e8b565b1415611b7757600381608001906003811115611b5e57611b5d614093565b5b90816003811115611b7257611b71614093565b5b815250505b5b828161014001818151611b8b9190614e8b565b91508181525050600381608001906003811115611bab57611baa614093565b5b90816003811115611bbf57611bbe614093565b5b8152505080828581548110611bd757611bd6614bd4565b5b906000526020600020906008020160008201518160000160006101000a81548160ff02191690831515021790555060208201518160000160016101000a81548160ff02191690831515021790555060408201518160000160026101000a81548160ff021916908360ff16021790555060608201518160000160036101000a81548160ff021916908360ff16021790555060808201518160000160046101000a81548160ff02191690836003811115611c9257611c91614093565b5b021790555060a08201518160000160056101000a81548173ffffffffffffffffffffffffffffffffffffffff021916908373ffffffffffffffffffffffffffffffffffffffff16021790555060c08201518160010160006101000a8154816fffffffffffffffffffffffffffffffff02191690836fffffffffffffffffffffffffffffffff16021790555060e08201518160010160106101000a8154816fffffffffffffffffffffffffffffffff02191690836fffffffffffffffffffffffffffffffff1602179055506101008201518160020155610120820151816003015561014082015181600401556101608201518160050155610180820151816006019080519060200190611da5929190613cb1565b506101a0820151816007019080519060200190611dc3929190613d37565b5090505060008160a0015173ffffffffffffffffffffffffffffffffffffffff1684604051611df190614eed565b60006040518083038185875af1925050503d8060008114611e2e576040519150601f19603f3d011682016040523d82523d6000602084013e611e33565b606091505b5050905080611e77576040517f08c379a0000000000000000000000000000000000000000000000000000000008152600401611e6e90614f4e565b60405180910390fd5b5050505050565b60606000600460008473ffffffffffffffffffffffffffffffffffffffff1673ffffffffffffffffffffffffffffffffffffffff168152602001908152602001600020805480602002602001604051908101604052809291908181526020016000905b8282101561203b57838290600052602060002090600302016040518060a00160405290816000820160009054906101000a900473ffffffffffffffffffffffffffffffffffffffff1673ffffffffffffffffffffffffffffffffffffffff1673ffffffffffffffffffffffffffffffffffffffff1681526020016000820160149054906101000a900460ff161515151581526020016000820160159054906101000a900460ff1615151515815260200160018201548152602001600282018054611faa90614b25565b80601f0160208091040260200160405190810160405280929190818152602001828054611fd690614b25565b80156120235780601f10611ff857610100808354040283529160200191612023565b820191906000526020600020905b81548152906001019060200180831161200657829003601f168201915b50505050508152505081526020019060010190611ee1565b5050505090506000805b825181101561242f57600083828151811061206357612062614bd4565b5b6020026020010151600001519050600084838151811061208657612085614bd4565b5b60200260200101516060015190506000600360008473ffffffffffffffffffffffffffffffffffffffff1673ffffffffffffffffffffffffffffffffffffffff16815260200190815260200160002082815481106120e7576120e6614bd4565b5b9060005260206000209060080201604051806101c00160405290816000820160009054906101000a900460ff161515151581526020016000820160019054906101000a900460ff161515151581526020016000820160029054906101000a900460ff1660ff1660ff1681526020016000820160039054906101000a900460ff1660ff1660ff1681526020016000820160049054906101000a900460ff16600381111561219657612195614093565b5b60038111156121a8576121a7614093565b5b81526020016000820160059054906101000a900473ffffffffffffffffffffffffffffffffffffffff1673ffffffffffffffffffffffffffffffffffffffff1673ffffffffffffffffffffffffffffffffffffffff1681526020016001820160009054906101000a90046fffffffffffffffffffffffffffffffff166fffffffffffffffffffffffffffffffff166fffffffffffffffffffffffffffffffff1681526020016001820160109054906101000a90046fffffffffffffffffffffffffffffffff166fffffffffffffffffffffffffffffffff166fffffffffffffffffffffffffffffffff168152602001600282015481526020016003820154815260200160048201548152602001600582015481526020016006820180546122ce90614b25565b80601f01602080910402602001604051908101604052809291908181526020018280546122fa90614b25565b80156123475780601f1061231c57610100808354040283529160200191612347565b820191906000526020600020905b81548152906001019060200180831161232a57829003601f168201915b50505050508152602001600782018054806020026020016040519081016040528092919081815260200182805480156123d557602002820191906000526020600020905b8160009054906101000a900473ffffffffffffffffffffffffffffffffffffffff1673ffffffffffffffffffffffffffffffffffffffff168152602001906001019080831161238b575b505050505081525050905080602001511561241957808786815181106123fe576123fd614bd4565b5b60200260200101819052506001856124169190614c78565b94505b505050808061242790614f6e565b915050612045565b505050919050565b60008060009054906101000a900460ff16905090565b6000600360003373ffffffffffffffffffffffffffffffffffffffff1673ffffffffffffffffffffffffffffffffffffffff168152602001908152602001600020905060008183815481106124a5576124a4614bd4565b5b90600052602060002090600802019050600160038111156124c9576124c8614093565b5b8160000160049054906101000a900460ff1660038111156124ed576124ec614093565b5b1461252d576040517f08c379a000000000000000000000000000000000000000000000000000000000815260040161252490614c29565b60405180910390fd5b8060000160019054906101000a900460ff161561257f576040517f08c379a000000000000000000000000000000000000000000000000000000000815260040161257690615003565b60405180910390fd5b60008160050154116125c6576040517f08c379a00000000000000000000000000000000000000000000000000000000081526004016125bd9061506f565b60405180910390fd5b60018160000160016101000a81548160ff021916908315150217905550505050565b7f65d7a28e3265b37a6474929f336521b332c1681b933f6cb9f3376673440d862a6126128161367e565b61261a6138be565b50565b60006001600084815260200190815260200160002060000160008373ffffffffffffffffffffffffffffffffffffffff1673ffffffffffffffffffffffffffffffffffffffff16815260200190815260200160002060009054906101000a900460ff16905092915050565b61269133613920565b6126d0576040517f08c379a00000000000000000000000000000000000000000000000000000000081526004016126c7906150db565b60405180910390fd5b6101f483101561271757826040517f3728b83d00000000000000000000000000000000000000000000000000000000815260040161270e9190614520565b60405180910390fd5b600382829050108061272c575060fa82829050115b1561276c576040517f08c379a000000000000000000000000000000000000000000000000000000000815260040161276390615147565b60405180910390fd5b6000600360003373ffffffffffffffffffffffffffffffffffffffff1673ffffffffffffffffffffffffffffffffffffffff1681526020019081526020016000209050600081805490509050600084849050905060606000604051806101c00160405280600115158152602001600015158152602001600060ff1681526020018460ff1681526020016001600381111561280957612808614093565b5b81526020013373ffffffffffffffffffffffffffffffffffffffff168152602001426fffffffffffffffffffffffffffffffff16815260200160006fffffffffffffffffffffffffffffffff16815260200185815260200189815260200160008152602001600081526020018b8b8080601f016020809104026020016040519081016040528093929190818152602001838380828437600081840152601f19601f8201169050808301925050505050505081526020018381525090508481908060018154018082558091505060019003906000526020600020906008020160009091909190915060008201518160000160006101000a81548160ff02191690831515021790555060208201518160000160016101000a81548160ff02191690831515021790555060408201518160000160026101000a81548160ff021916908360ff16021790555060608201518160000160036101000a81548160ff021916908360ff16021790555060808201518160000160046101000a81548160ff0219169083600381111561299d5761299c614093565b5b021790555060a08201518160000160056101000a81548173ffffffffffffffffffffffffffffffffffffffff021916908373ffffffffffffffffffffffffffffffffffffffff16021790555060c08201518160010160006101000a8154816fffffffffffffffffffffffffffffffff02191690836fffffffffffffffffffffffffffffffff16021790555060e08201518160010160106101000a8154816fffffffffffffffffffffffffffffffff02191690836fffffffffffffffffffffffffffffffff1602179055506101008201518160020155610120820151816003015561014082015181600401556101608201518160050155610180820151816006019080519060200190612ab0929190613cb1565b506101a0820151816007019080519060200190612ace929190613d37565b5050506000878780806020026020016040519081016040528093929190818152602001838360200280828437600081840152601f19601f82011690508083019250505050505050905060005b8151811015612d16576000828281518110612b3857612b37614bd4565b5b602002602001015190503373ffffffffffffffffffffffffffffffffffffffff168173ffffffffffffffffffffffffffffffffffffffff161415612b7b57600080fd5b612b8481613920565b612b8d57600080fd5b60006040518060a001604052808660a0015173ffffffffffffffffffffffffffffffffffffffff168152602001600015158152602001600015158152602001866101000151815260200186610180015181525090506000600460008473ffffffffffffffffffffffffffffffffffffffff1673ffffffffffffffffffffffffffffffffffffffff16815260200190815260200160002090508082908060018154018082558091505060019003906000526020600020906003020160009091909190915060008201518160000160006101000a81548173ffffffffffffffffffffffffffffffffffffffff021916908373ffffffffffffffffffffffffffffffffffffffff16021790555060208201518160000160146101000a81548160ff02191690831515021790555060408201518160000160156101000a81548160ff021916908315150217905550606082015181600101556080820151816002019080519060200190612cfd929190613cb1565b5050505050508080612d0e90614f6e565b915050612b1a565b503373ffffffffffffffffffffffffffffffffffffffff168261010001517f633109eec20320eded000fc1e2634211aa7e92ba3f5b15faf6dcdafca05094e460405160405180910390a35050505050505050505050565b6060600460008373ffffffffffffffffffffffffffffffffffffffff1673ffffffffffffffffffffffffffffffffffffffff168152602001908152602001600020805480602002602001604051908101604052809291908181526020016000905b82821015612f2857838290600052602060002090600302016040518060a00160405290816000820160009054906101000a900473ffffffffffffffffffffffffffffffffffffffff1673ffffffffffffffffffffffffffffffffffffffff1673ffffffffffffffffffffffffffffffffffffffff1681526020016000820160149054906101000a900460ff161515151581526020016000820160159054906101000a900460ff1615151515815260200160018201548152602001600282018054612e9790614b25565b80601f0160208091040260200160405190810160405280929190818152602001828054612ec390614b25565b8015612f105780601f10612ee557610100808354040283529160200191612f10565b820191906000526020600020905b815481529060010190602001808311612ef357829003601f168201915b50505050508152505081526020019060010190612dce565b505050509050919050565b6000612f3f83836130d8565b90503373ffffffffffffffffffffffffffffffffffffffff168160000160059054906101000a900473ffffffffffffffffffffffffffffffffffffffff1673ffffffffffffffffffffffffffffffffffffffff16837f3ffcd92ab0feb4b6871585fae9ce50f9ef84e1149eff4f2d573bfe390c37f05a60405160405180910390a460018160000160028282829054906101000a900460ff16612fe19190615167565b92506101000a81548160ff021916908360ff160217905550505050565b7fe2f4eaae4a9751e85a3e4a7b9587827a877f29914755229b07a7b2da98285f7081565b6000801b81565b61303282611403565b61303b8161367e565b613045838361377a565b505050565b7f65d7a28e3265b37a6474929f336521b332c1681b933f6cb9f3376673440d862a81565b60007f01ffc9a7000000000000000000000000000000000000000000000000000000007bffffffffffffffffffffffffffffffffffffffffffffffffffffffff1916827bffffffffffffffffffffffffffffffffffffffffffffffffffffffff1916149050919050565b600080600360008573ffffffffffffffffffffffffffffffffffffffff1673ffffffffffffffffffffffffffffffffffffffff1681526020019081526020016000209050600081848154811061313157613130614bd4565b5b906000526020600020906008020190506001600381111561315557613154614093565b5b8160000160049054906101000a900460ff16600381111561317957613178614093565b5b146131bd5783856040517f26508b5d0000000000000000000000000000000000000000000000000000000081526004016131b4929190614d8a565b60405180910390fd5b8060000160019054906101000a900460ff1661320e576040517f08c379a000000000000000000000000000000000000000000000000000000000815260040161320590614dff565b60405180910390fd5b6000600460003373ffffffffffffffffffffffffffffffffffffffff1673ffffffffffffffffffffffffffffffffffffffff168152602001908152602001600020805480602002602001604051908101604052809291908181526020016000905b828210156133c957838290600052602060002090600302016040518060a00160405290816000820160009054906101000a900473ffffffffffffffffffffffffffffffffffffffff1673ffffffffffffffffffffffffffffffffffffffff1673ffffffffffffffffffffffffffffffffffffffff1681526020016000820160149054906101000a900460ff161515151581526020016000820160159054906101000a900460ff161515151581526020016001820154815260200160028201805461333890614b25565b80601f016020809104026020016040519081016040528092919081815260200182805461336490614b25565b80156133b15780601f10613386576101008083540402835291602001916133b1565b820191906000526020600020905b81548152906001019060200180831161339457829003601f168201915b5050505050815250508152602001906001019061326f565b50505050905060006133d9613e86565b600080600090505b84518110156134c557856002015485828151811061340257613401614bd4565b5b60200260200101516060015114801561348857508560000160059054906101000a900473ffffffffffffffffffffffffffffffffffffffff1673ffffffffffffffffffffffffffffffffffffffff1685828151811061346457613463614bd4565b5b60200260200101516000015173ffffffffffffffffffffffffffffffffffffffff16145b156134b257600193508481815181106134a4576134a3614bd4565b5b602002602001015192508091505b80806134bd90614f6e565b9150506133e1565b508261350857336040517f8e4a23d60000000000000000000000000000000000000000000000000000000081526004016134ff9190614d6f565b60405180910390fd5b81602001511561354d576040517f08c379a0000000000000000000000000000000000000000000000000000000008152600401613544906151ea565b60405180910390fd5b600182602001901515908115158152505081600460003373ffffffffffffffffffffffffffffffffffffffff1673ffffffffffffffffffffffffffffffffffffffff16815260200190815260200160002082815481106135b0576135af614bd4565b5b906000526020600020906003020160008201518160000160006101000a81548173ffffffffffffffffffffffffffffffffffffffff021916908373ffffffffffffffffffffffffffffffffffffffff16021790555060208201518160000160146101000a81548160ff02191690831515021790555060408201518160000160156101000a81548160ff02191690831515021790555060608201518160010155608082015181600201908051906020019061366b929190613cb1565b5090505084965050505050505092915050565b61368f8161368a613772565b613945565b50565b61369c828261261d565b61376e57600180600084815260200190815260200160002060000160008373ffffffffffffffffffffffffffffffffffffffff1673ffffffffffffffffffffffffffffffffffffffff16815260200190815260200160002060006101000a81548160ff021916908315150217905550613713613772565b73ffffffffffffffffffffffffffffffffffffffff168173ffffffffffffffffffffffffffffffffffffffff16837f2f8788117e7eff1d82e926ec794901d17c78024a50270940304540a733656f0d60405160405180910390a45b5050565b600033905090565b613784828261261d565b156138585760006001600084815260200190815260200160002060000160008373ffffffffffffffffffffffffffffffffffffffff1673ffffffffffffffffffffffffffffffffffffffff16815260200190815260200160002060006101000a81548160ff0219169083151502179055506137fd613772565b73ffffffffffffffffffffffffffffffffffffffff168173ffffffffffffffffffffffffffffffffffffffff16837ff6391f5c32d9c69d2a47ea670b442974b53935d1edc7fd64eb21e047a839171b60405160405180910390a45b5050565b6138646139e2565b60008060006101000a81548160ff0219169083151502179055507f5db9ee0a495bf2e6ff9c91a7834c1ba4fdd244a5e8aa4e537bd38aeae4b073aa6138a7613772565b6040516138b49190614d6f565b60405180910390a1565b6138c6613a2b565b60016000806101000a81548160ff0219169083151502179055507f62e78cea01bee320cd4e420270b5ea74000d11b0c9f74754ebdbfc544b05a258613909613772565b6040516139169190614d6f565b60405180910390a1565b600080823b9050600081141561393a576001915050613940565b60009150505b919050565b61394f828261261d565b6139de576139748173ffffffffffffffffffffffffffffffffffffffff166014613a75565b6139828360001c6020613a75565b6040516020016139939291906152de565b6040516020818303038152906040526040517f08c379a00000000000000000000000000000000000000000000000000000000081526004016139d59190615351565b60405180910390fd5b5050565b6139ea612437565b613a29576040517f08c379a0000000000000000000000000000000000000000000000000000000008152600401613a20906153bf565b60405180910390fd5b565b613a33612437565b15613a73576040517f08c379a0000000000000000000000000000000000000000000000000000000008152600401613a6a9061542b565b60405180910390fd5b565b606060006002836002613a88919061544b565b613a929190614c78565b67ffffffffffffffff811115613aab57613aaa6154a5565b5b6040519080825280601f01601f191660200182016040528015613add5781602001600182028036833780820191505090505b5090507f300000000000000000000000000000000000000000000000000000000000000081600081518110613b1557613b14614bd4565b5b60200101907effffffffffffffffffffffffffffffffffffffffffffffffffffffffffffff1916908160001a9053507f780000000000000000000000000000000000000000000000000000000000000081600181518110613b7957613b78614bd4565b5b60200101907effffffffffffffffffffffffffffffffffffffffffffffffffffffffffffff1916908160001a90535060006001846002613bb9919061544b565b613bc39190614c78565b90505b6001811115613c63577f3031323334353637383961626364656600000000000000000000000000000000600f861660108110613c0557613c04614bd4565b5b1a60f81b828281518110613c1c57613c1b614bd4565b5b60200101907effffffffffffffffffffffffffffffffffffffffffffffffffffffffffffff1916908160001a905350600485901c945080613c5c906154d4565b9050613bc6565b5060008414613ca7576040517f08c379a0000000000000000000000000000000000000000000000000000000008152600401613c9e9061554a565b60405180910390fd5b8091505092915050565b828054613cbd90614b25565b90600052602060002090601f016020900481019282613cdf5760008555613d26565b82601f10613cf857805160ff1916838001178555613d26565b82800160010185558215613d26579182015b82811115613d25578251825591602001919060010190613d0a565b5b509050613d339190613ecf565b5090565b828054828255906000526020600020908101928215613db0579160200282015b82811115613daf5782518260006101000a81548173ffffffffffffffffffffffffffffffffffffffff021916908373ffffffffffffffffffffffffffffffffffffffff16021790555091602001919060010190613d57565b5b509050613dbd9190613ecf565b5090565b604051806101c00160405280600015158152602001600015158152602001600060ff168152602001600060ff16815260200160006003811115613e0757613e06614093565b5b8152602001600073ffffffffffffffffffffffffffffffffffffffff16815260200160006fffffffffffffffffffffffffffffffff16815260200160006fffffffffffffffffffffffffffffffff1681526020016000815260200160008152602001600081526020016000815260200160608152602001606081525090565b6040518060a00160405280600073ffffffffffffffffffffffffffffffffffffffff16815260200160001515815260200160001515815260200160008152602001606081525090565b5b80821115613ee8576000816000905550600101613ed0565b5090565b600080fd5b600080fd5b60007fffffffff0000000000000000000000000000000000000000000000000000000082169050919050565b613f2b81613ef6565b8114613f3657600080fd5b50565b600081359050613f4881613f22565b92915050565b600060208284031215613f6457613f63613eec565b5b6000613f7284828501613f39565b91505092915050565b60008115159050919050565b613f9081613f7b565b82525050565b6000602082019050613fab6000830184613f87565b92915050565b600073ffffffffffffffffffffffffffffffffffffffff82169050919050565b6000613fdc82613fb1565b9050919050565b613fec81613fd1565b8114613ff757600080fd5b50565b60008135905061400981613fe3565b92915050565b60006020828403121561402557614024613eec565b5b600061403384828501613ffa565b91505092915050565b600081519050919050565b600082825260208201905092915050565b6000819050602082019050919050565b61407181613f7b565b82525050565b600060ff82169050919050565b61408d81614077565b82525050565b7f4e487b7100000000000000000000000000000000000000000000000000000000600052602160045260246000fd5b600481106140d3576140d2614093565b5b50565b60008190506140e4826140c2565b919050565b60006140f4826140d6565b9050919050565b614104816140e9565b82525050565b61411381613fd1565b82525050565b60006fffffffffffffffffffffffffffffffff82169050919050565b61413e81614119565b82525050565b6000819050919050565b61415781614144565b82525050565b600081519050919050565b600082825260208201905092915050565b60005b8381101561419757808201518184015260208101905061417c565b838111156141a6576000848401525b50505050565b6000601f19601f8301169050919050565b60006141c88261415d565b6141d28185614168565b93506141e2818560208601614179565b6141eb816141ac565b840191505092915050565b600081519050919050565b600082825260208201905092915050565b6000819050602082019050919050565b600061422e838361410a565b60208301905092915050565b6000602082019050919050565b6000614252826141f6565b61425c8185614201565b935061426783614212565b8060005b8381101561429857815161427f8882614222565b975061428a8361423a565b92505060018101905061426b565b5085935050505092915050565b60006101c0830160008301516142be6000860182614068565b5060208301516142d16020860182614068565b5060408301516142e46040860182614084565b5060608301516142f76060860182614084565b50608083015161430a60808601826140fb565b5060a083015161431d60a086018261410a565b5060c083015161433060c0860182614135565b5060e083015161434360e0860182614135565b5061010083015161435861010086018261414e565b5061012083015161436d61012086018261414e565b5061014083015161438261014086018261414e565b5061016083015161439761016086018261414e565b506101808301518482036101808601526143b182826141bd565b9150506101a08301518482036101a08601526143cd8282614247565b9150508091505092915050565b60006143e683836142a5565b905092915050565b6000602082019050919050565b60006144068261403c565b6144108185614047565b93508360208202850161442285614058565b8060005b8581101561445e578484038952815161443f85826143da565b945061444a836143ee565b925060208a01995050600181019050614426565b50829750879550505050505092915050565b6000602082019050818103600083015261448a81846143fb565b905092915050565b61449b81614144565b81146144a657600080fd5b50565b6000813590506144b881614492565b92915050565b6000806000606084860312156144d7576144d6613eec565b5b60006144e586828701613ffa565b93505060206144f6868287016144a9565b9250506040614507868287016144a9565b9150509250925092565b61451a81614144565b82525050565b60006020820190506145356000830184614511565b92915050565b6000806040838503121561455257614551613eec565b5b6000614560858286016144a9565b925050602061457185828601613ffa565b9150509250929050565b60006101c0830160008301516145946000860182614068565b5060208301516145a76020860182614068565b5060408301516145ba6040860182614084565b5060608301516145cd6060860182614084565b5060808301516145e060808601826140fb565b5060a08301516145f360a086018261410a565b5060c083015161460660c0860182614135565b5060e083015161461960e0860182614135565b5061010083015161462e61010086018261414e565b5061012083015161464361012086018261414e565b5061014083015161465861014086018261414e565b5061016083015161466d61016086018261414e565b5061018083015184820361018086015261468782826141bd565b9150506101a08301518482036101a08601526146a38282614247565b9150508091505092915050565b600060208201905081810360008301526146ca818461457b565b905092915050565b6000819050919050565b6146e5816146d2565b81146146f057600080fd5b50565b600081359050614702816146dc565b92915050565b60006020828403121561471e5761471d613eec565b5b600061472c848285016146f3565b91505092915050565b61473e816146d2565b82525050565b60006020820190506147596000830184614735565b92915050565b6000806040838503121561477657614775613eec565b5b600061478485828601613ffa565b9250506020614795858286016144a9565b9150509250929050565b600080604083850312156147b6576147b5613eec565b5b60006147c4858286016146f3565b92505060206147d585828601613ffa565b9150509250929050565b600080604083850312156147f6576147f5613eec565b5b6000614804858286016144a9565b9250506020614815858286016144a9565b9150509250929050565b60006020828403121561483557614834613eec565b5b6000614843848285016144a9565b91505092915050565b600080fd5b600080fd5b600080fd5b60008083601f8401126148715761487061484c565b5b8235905067ffffffffffffffff81111561488e5761488d614851565b5b6020830191508360018202830111156148aa576148a9614856565b5b9250929050565b60008083601f8401126148c7576148c661484c565b5b8235905067ffffffffffffffff8111156148e4576148e3614851565b5b602083019150836020820283011115614900576148ff614856565b5b9250929050565b60008060008060006060868803121561492357614922613eec565b5b600086013567ffffffffffffffff81111561494157614940613ef1565b5b61494d8882890161485b565b95509550506020614960888289016144a9565b935050604086013567ffffffffffffffff81111561498157614980613ef1565b5b61498d888289016148b1565b92509250509295509295909350565b600081519050919050565b600082825260208201905092915050565b6000819050602082019050919050565b600060a0830160008301516149e0600086018261410a565b5060208301516149f36020860182614068565b506040830151614a066040860182614068565b506060830151614a19606086018261414e565b5060808301518482036080860152614a3182826141bd565b9150508091505092915050565b6000614a4a83836149c8565b905092915050565b6000602082019050919050565b6000614a6a8261499c565b614a7481856149a7565b935083602082028501614a86856149b8565b8060005b85811015614ac25784840389528151614aa38582614a3e565b9450614aae83614a52565b925060208a01995050600181019050614a8a565b50829750879550505050505092915050565b60006020820190508181036000830152614aee8184614a5f565b905092915050565b7f4e487b7100000000000000000000000000000000000000000000000000000000600052602260045260246000fd5b60006002820490506001821680614b3d57607f821691505b60208210811415614b5157614b50614af6565b5b50919050565b600082825260208201905092915050565b7f496e76616c696420616d6f756e74000000000000000000000000000000000000600082015250565b6000614b9e600e83614b57565b9150614ba982614b68565b602082019050919050565b60006020820190508181036000830152614bcd81614b91565b9050919050565b7f4e487b7100000000000000000000000000000000000000000000000000000000600052603260045260246000fd5b50565b6000614c13600083614b57565b9150614c1e82614c03565b600082019050919050565b60006020820190508181036000830152614c4281614c06565b9050919050565b7f4e487b7100000000000000000000000000000000000000000000000000000000600052601160045260246000fd5b6000614c8382614144565b9150614c8e83614144565b9250827fffffffffffffffffffffffffffffffffffffffffffffffffffffffffffffffff03821115614cc357614cc2614c49565b5b828201905092915050565b7f416363657373436f6e74726f6c3a2063616e206f6e6c792072656e6f756e636560008201527f20726f6c657320666f722073656c660000000000000000000000000000000000602082015250565b6000614d2a602f83614b57565b9150614d3582614cce565b604082019050919050565b60006020820190508181036000830152614d5981614d1d565b9050919050565b614d6981613fd1565b82525050565b6000602082019050614d846000830184614d60565b92915050565b6000604082019050614d9f6000830185614511565b614dac6020830184614d60565b9392505050565b7f63616d706169676e207769746864726177206e6f742072657175657374656400600082015250565b6000614de9601f83614b57565b9150614df482614db3565b602082019050919050565b60006020820190508181036000830152614e1881614ddc565b9050919050565b7f496e73756666696369656e742046756e64730000000000000000000000000000600082015250565b6000614e55601283614b57565b9150614e6082614e1f565b602082019050919050565b60006020820190508181036000830152614e8481614e48565b9050919050565b6000614e9682614144565b9150614ea183614144565b925082821015614eb457614eb3614c49565b5b828203905092915050565b600081905092915050565b6000614ed7600083614ebf565b9150614ee282614c03565b600082019050919050565b6000614ef882614eca565b9150819050919050565b7f4572726f7220696e2053656e6400000000000000000000000000000000000000600082015250565b6000614f38600d83614b57565b9150614f4382614f02565b602082019050919050565b60006020820190508181036000830152614f6781614f2b565b9050919050565b6000614f7982614144565b91507fffffffffffffffffffffffffffffffffffffffffffffffffffffffffffffffff821415614fac57614fab614c49565b5b600182019050919050565b7f416c726561647920726571756573746564000000000000000000000000000000600082015250565b6000614fed601183614b57565b9150614ff882614fb7565b602082019050919050565b6000602082019050818103600083015261501c81614fe0565b9050919050565b7f4e6f206465706f73697420796574210000000000000000000000000000000000600082015250565b6000615059600f83614b57565b915061506482615023565b602082019050919050565b600060208201905081810360008301526150888161504c565b9050919050565b7f4d7573742075736520454f410000000000000000000000000000000000000000600082015250565b60006150c5600c83614b57565b91506150d08261508f565b602082019050919050565b600060208201905081810360008301526150f4816150b8565b9050919050565b7f496e76616c6964207369676e61746f727920636f756e74000000000000000000600082015250565b6000615131601783614b57565b915061513c826150fb565b602082019050919050565b6000602082019050818103600083015261516081615124565b9050919050565b600061517282614077565b915061517d83614077565b92508260ff0382111561519357615192614c49565b5b828201905092915050565b7f416c726561647920766f74656400000000000000000000000000000000000000600082015250565b60006151d4600d83614b57565b91506151df8261519e565b602082019050919050565b60006020820190508181036000830152615203816151c7565b9050919050565b600081905092915050565b7f416363657373436f6e74726f6c3a206163636f756e7420000000000000000000600082015250565b600061524b60178361520a565b915061525682615215565b601782019050919050565b600061526c8261415d565b615276818561520a565b9350615286818560208601614179565b80840191505092915050565b7f206973206d697373696e6720726f6c6520000000000000000000000000000000600082015250565b60006152c860118361520a565b91506152d382615292565b601182019050919050565b60006152e98261523e565b91506152f58285615261565b9150615300826152bb565b915061530c8284615261565b91508190509392505050565b60006153238261415d565b61532d8185614b57565b935061533d818560208601614179565b615346816141ac565b840191505092915050565b6000602082019050818103600083015261536b8184615318565b905092915050565b7f5061757361626c653a206e6f7420706175736564000000000000000000000000600082015250565b60006153a9601483614b57565b91506153b482615373565b602082019050919050565b600060208201905081810360008301526153d88161539c565b9050919050565b7f5061757361626c653a2070617573656400000000000000000000000000000000600082015250565b6000615415601083614b57565b9150615420826153df565b602082019050919050565b6000602082019050818103600083015261544481615408565b9050919050565b600061545682614144565b915061546183614144565b9250817fffffffffffffffffffffffffffffffffffffffffffffffffffffffffffffffff048311821515161561549a57615499614c49565b5b828202905092915050565b7f4e487b7100000000000000000000000000000000000000000000000000000000600052604160045260246000fd5b60006154df82614144565b915060008214156154f3576154f2614c49565b5b600182039050919050565b7f537472696e67733a20686578206c656e67746820696e73756666696369656e74600082015250565b6000615534602083614b57565b915061553f826154fe565b602082019050919050565b6000602082019050818103600083015261556381615527565b905091905056fea26469706673582212200aff647b2e8b2b4ac29e1543f669e129b02cb419ada2bffdff894a18b057aa8964736f6c63430008090033",
  "linkReferences": {},
  "deployedLinkReferences": {}
}