{
  "_format": "hh-sol-artifact-1",
  "contractName": "Fintrust",
  "sourceName": "contracts/Fintrust.sol",
  "abi": [
    {
      "inputs": [],
      "stateMutability": "nonpayable",
      "type": "constructor"
    },
    {
      "inputs": [
        {
          "internalType": "uint256",
          "name": "campaignId",
          "type": "uint256"
        }
      ],
      "name": "InactiveCampaign",
      "type": "error"
    },
    {
      "inputs": [
        {
          "internalType": "uint256",
          "name": "amount",
          "type": "uint256"
        }
      ],
      "name": "InvalidAmount",
      "type": "error"
    },
    {
      "inputs": [
        {
          "internalType": "uint256",
          "name": "campaignId",
          "type": "uint256"
        },
        {
          "internalType": "address",
          "name": "creator",
          "type": "address"
        }
      ],
      "name": "InvalidState",
      "type": "error"
    },
    {
      "inputs": [
        {
          "internalType": "uint256",
          "name": "campaignId",
          "type": "uint256"
        }
      ],
      "name": "TargetReached",
      "type": "error"
    },
    {
      "inputs": [
        {
          "internalType": "address",
          "name": "sender",
          "type": "address"
        }
      ],
      "name": "Unauthorized",
      "type": "error"
    },
    {
      "anonymous": false,
      "inputs": [
        {
          "indexed": true,
          "internalType": "uint256",
          "name": "id",
          "type": "uint256"
        },
        {
          "indexed": true,
          "internalType": "address",
          "name": "initiator",
          "type": "address"
        }
      ],
      "name": "CampaignCreated",
      "type": "event"
    },
    {
      "anonymous": false,
      "inputs": [
        {
          "indexed": true,
          "internalType": "uint256",
          "name": "id",
          "type": "uint256"
        },
        {
          "indexed": true,
          "internalType": "uint256",
          "name": "timeStamp",
          "type": "uint256"
        }
      ],
      "name": "CampaignEnded",
      "type": "event"
    },
    {
      "anonymous": false,
      "inputs": [
        {
          "indexed": true,
          "internalType": "uint256",
          "name": "id",
          "type": "uint256"
        },
        {
          "indexed": true,
          "internalType": "address",
          "name": "creator",
          "type": "address"
        },
        {
          "indexed": true,
          "internalType": "address",
          "name": "depositor",
          "type": "address"
        }
      ],
      "name": "Deposit",
      "type": "event"
    },
    {
      "anonymous": false,
      "inputs": [
        {
          "indexed": false,
          "internalType": "address",
          "name": "account",
          "type": "address"
        }
      ],
      "name": "Paused",
      "type": "event"
    },
    {
      "anonymous": false,
      "inputs": [
        {
          "indexed": true,
          "internalType": "bytes32",
          "name": "role",
          "type": "bytes32"
        },
        {
          "indexed": true,
          "internalType": "bytes32",
          "name": "previousAdminRole",
          "type": "bytes32"
        },
        {
          "indexed": true,
          "internalType": "bytes32",
          "name": "newAdminRole",
          "type": "bytes32"
        }
      ],
      "name": "RoleAdminChanged",
      "type": "event"
    },
    {
      "anonymous": false,
      "inputs": [
        {
          "indexed": true,
          "internalType": "bytes32",
          "name": "role",
          "type": "bytes32"
        },
        {
          "indexed": true,
          "internalType": "address",
          "name": "account",
          "type": "address"
        },
        {
          "indexed": true,
          "internalType": "address",
          "name": "sender",
          "type": "address"
        }
      ],
      "name": "RoleGranted",
      "type": "event"
    },
    {
      "anonymous": false,
      "inputs": [
        {
          "indexed": true,
          "internalType": "bytes32",
          "name": "role",
          "type": "bytes32"
        },
        {
          "indexed": true,
          "internalType": "address",
          "name": "account",
          "type": "address"
        },
        {
          "indexed": true,
          "internalType": "address",
          "name": "sender",
          "type": "address"
        }
      ],
      "name": "RoleRevoked",
      "type": "event"
    },
    {
      "anonymous": false,
      "inputs": [
        {
          "indexed": true,
          "internalType": "uint256",
          "name": "id",
          "type": "uint256"
        },
        {
          "indexed": true,
          "internalType": "address",
          "name": "creator",
          "type": "address"
        },
        {
          "indexed": true,
          "internalType": "address",
          "name": "sender",
          "type": "address"
        }
      ],
      "name": "SignerConfirmed",
      "type": "event"
    },
    {
      "anonymous": false,
      "inputs": [
        {
          "indexed": true,
          "internalType": "uint256",
          "name": "id",
          "type": "uint256"
        },
        {
          "indexed": true,
          "internalType": "address",
          "name": "creator",
          "type": "address"
        },
        {
          "indexed": true,
          "internalType": "address",
          "name": "sender",
          "type": "address"
        }
      ],
      "name": "SignerRejected",
      "type": "event"
    },
    {
      "anonymous": false,
      "inputs": [
        {
          "indexed": false,
          "internalType": "address",
          "name": "account",
          "type": "address"
        }
      ],
      "name": "Unpaused",
      "type": "event"
    },
    {
      "inputs": [],
      "name": "DEFAULT_ADMIN_ROLE",
      "outputs": [
        {
          "internalType": "bytes32",
          "name": "",
          "type": "bytes32"
        }
      ],
      "stateMutability": "view",
      "type": "function"
    },
    {
      "inputs": [],
      "name": "PAUSER_ROLE",
      "outputs": [
        {
          "internalType": "bytes32",
          "name": "",
          "type": "bytes32"
        }
      ],
      "stateMutability": "view",
      "type": "function"
    },
    {
      "inputs": [],
      "name": "SIGNER_ROLE",
      "outputs": [
        {
          "internalType": "bytes32",
          "name": "",
          "type": "bytes32"
        }
      ],
      "stateMutability": "view",
      "type": "function"
    },
    {
      "inputs": [
        {
          "internalType": "address",
          "name": "creator",
          "type": "address"
        }
      ],
      "name": "allCampaigns",
      "outputs": [
        {
          "components": [
            {
              "internalType": "bool",
              "name": "isActive",
              "type": "bool"
            },
            {
              "internalType": "bool",
              "name": "withdrawInitiated",
              "type": "bool"
            },
            {
              "internalType": "uint8",
              "name": "confirmations",
              "type": "uint8"
            },
            {
              "internalType": "uint8",
              "name": "signatoriesCount",
              "type": "uint8"
            },
            {
              "internalType": "enum Fintrust.State",
              "name": "state",
              "type": "uint8"
            },
            {
              "internalType": "address",
              "name": "initiator",
              "type": "address"
            },
            {
              "internalType": "uint128",
              "name": "startTimeStamp",
              "type": "uint128"
            },
            {
              "internalType": "uint128",
              "name": "endTimeStamp",
              "type": "uint128"
            },
            {
              "internalType": "uint256",
              "name": "id",
              "type": "uint256"
            },
            {
              "internalType": "uint256",
              "name": "amount",
              "type": "uint256"
            },
            {
              "internalType": "uint256",
              "name": "balance",
              "type": "uint256"
            },
            {
              "internalType": "uint256",
              "name": "deposited",
              "type": "uint256"
            },
            {
              "internalType": "string",
              "name": "url",
              "type": "string"
            },
            {
              "internalType": "address[]",
              "name": "signatories",
              "type": "address[]"
            }
          ],
          "internalType": "struct Fintrust.Campaign[]",
          "name": "",
          "type": "tuple[]"
        }
      ],
      "stateMutability": "view",
      "type": "function"
    },
    {
      "inputs": [
        {
          "internalType": "address",
          "name": "signatory",
          "type": "address"
        }
      ],
      "name": "allRef",
      "outputs": [
        {
          "components": [
            {
              "internalType": "address",
              "name": "initiator",
              "type": "address"
            },
            {
              "internalType": "bool",
              "name": "hasVoted",
              "type": "bool"
            },
            {
              "internalType": "bool",
              "name": "withdrawInitiated",
              "type": "bool"
            },
            {
              "internalType": "uint256",
              "name": "id",
              "type": "uint256"
            },
            {
              "internalType": "string",
              "name": "url",
              "type": "string"
            }
          ],
          "internalType": "struct Fintrust.CampaignRef[]",
          "name": "",
          "type": "tuple[]"
        }
      ],
      "stateMutability": "view",
      "type": "function"
    },
    {
      "inputs": [
        {
          "internalType": "address",
          "name": "signatory",
          "type": "address"
        }
      ],
      "name": "allWithdrawRequest",
      "outputs": [
        {
          "components": [
            {
              "internalType": "bool",
              "name": "isActive",
              "type": "bool"
            },
            {
              "internalType": "bool",
              "name": "withdrawInitiated",
              "type": "bool"
            },
            {
              "internalType": "uint8",
              "name": "confirmations",
              "type": "uint8"
            },
            {
              "internalType": "uint8",
              "name": "signatoriesCount",
              "type": "uint8"
            },
            {
              "internalType": "enum Fintrust.State",
              "name": "state",
              "type": "uint8"
            },
            {
              "internalType": "address",
              "name": "initiator",
              "type": "address"
            },
            {
              "internalType": "uint128",
              "name": "startTimeStamp",
              "type": "uint128"
            },
            {
              "internalType": "uint128",
              "name": "endTimeStamp",
              "type": "uint128"
            },
            {
              "internalType": "uint256",
              "name": "id",
              "type": "uint256"
            },
            {
              "internalType": "uint256",
              "name": "amount",
              "type": "uint256"
            },
            {
              "internalType": "uint256",
              "name": "balance",
              "type": "uint256"
            },
            {
              "internalType": "uint256",
              "name": "deposited",
              "type": "uint256"
            },
            {
              "internalType": "string",
              "name": "url",
              "type": "string"
            },
            {
              "internalType": "address[]",
              "name": "signatories",
              "type": "address[]"
            }
          ],
          "internalType": "struct Fintrust.Campaign[]",
          "name": "_campaigns",
          "type": "tuple[]"
        }
      ],
      "stateMutability": "view",
      "type": "function"
    },
    {
      "inputs": [
        {
          "internalType": "address",
          "name": "creator",
          "type": "address"
        },
        {
          "internalType": "uint256",
          "name": "_campaignId",
          "type": "uint256"
        }
      ],
      "name": "confirmWithdraw",
      "outputs": [],
      "stateMutability": "nonpayable",
      "type": "function"
    },
    {
      "inputs": [
        {
          "internalType": "string",
          "name": "_url",
          "type": "string"
        },
        {
          "internalType": "uint256",
          "name": "_amount",
          "type": "uint256"
        },
        {
          "internalType": "address[]",
          "name": "_signatories",
          "type": "address[]"
        }
      ],
      "name": "createCampaign",
      "outputs": [],
      "stateMutability": "payable",
      "type": "function"
    },
    {
      "inputs": [
        {
          "internalType": "address",
          "name": "creator",
          "type": "address"
        },
        {
          "internalType": "uint256",
          "name": "_campaignId",
          "type": "uint256"
        },
        {
          "internalType": "uint256",
          "name": "amount",
          "type": "uint256"
        }
      ],
      "name": "deposit",
      "outputs": [],
      "stateMutability": "payable",
      "type": "function"
    },
    {
      "inputs": [],
      "name": "getAllCampaigns",
      "outputs": [
        {
          "components": [
            {
              "internalType": "bool",
              "name": "isActive",
              "type": "bool"
            },
            {
              "internalType": "bool",
              "name": "withdrawInitiated",
              "type": "bool"
            },
            {
              "internalType": "uint8",
              "name": "confirmations",
              "type": "uint8"
            },
            {
              "internalType": "uint8",
              "name": "signatoriesCount",
              "type": "uint8"
            },
            {
              "internalType": "enum Fintrust.State",
              "name": "state",
              "type": "uint8"
            },
            {
              "internalType": "address",
              "name": "initiator",
              "type": "address"
            },
            {
              "internalType": "uint128",
              "name": "startTimeStamp",
              "type": "uint128"
            },
            {
              "internalType": "uint128",
              "name": "endTimeStamp",
              "type": "uint128"
            },
            {
              "internalType": "uint256",
              "name": "id",
              "type": "uint256"
            },
            {
              "internalType": "uint256",
              "name": "amount",
              "type": "uint256"
            },
            {
              "internalType": "uint256",
              "name": "balance",
              "type": "uint256"
            },
            {
              "internalType": "uint256",
              "name": "deposited",
              "type": "uint256"
            },
            {
              "internalType": "string",
              "name": "url",
              "type": "string"
            },
            {
              "internalType": "address[]",
              "name": "signatories",
              "type": "address[]"
            }
          ],
          "internalType": "struct Fintrust.Campaign[]",
          "name": "",
          "type": "tuple[]"
        }
      ],
      "stateMutability": "view",
      "type": "function"
    },
    {
      "inputs": [],
      "name": "getBalance",
      "outputs": [
        {
          "internalType": "uint256",
          "name": "",
          "type": "uint256"
        }
      ],
      "stateMutability": "view",
      "type": "function"
    },
    {
      "inputs": [
        {
          "internalType": "uint256",
          "name": "_campaignId",
          "type": "uint256"
        },
        {
          "internalType": "address",
          "name": "creator",
          "type": "address"
        }
      ],
      "name": "getCampaign",
      "outputs": [
        {
          "components": [
            {
              "internalType": "bool",
              "name": "isActive",
              "type": "bool"
            },
            {
              "internalType": "bool",
              "name": "withdrawInitiated",
              "type": "bool"
            },
            {
              "internalType": "uint8",
              "name": "confirmations",
              "type": "uint8"
            },
            {
              "internalType": "uint8",
              "name": "signatoriesCount",
              "type": "uint8"
            },
            {
              "internalType": "enum Fintrust.State",
              "name": "state",
              "type": "uint8"
            },
            {
              "internalType": "address",
              "name": "initiator",
              "type": "address"
            },
            {
              "internalType": "uint128",
              "name": "startTimeStamp",
              "type": "uint128"
            },
            {
              "internalType": "uint128",
              "name": "endTimeStamp",
              "type": "uint128"
            },
            {
              "internalType": "uint256",
              "name": "id",
              "type": "uint256"
            },
            {
              "internalType": "uint256",
              "name": "amount",
              "type": "uint256"
            },
            {
              "internalType": "uint256",
              "name": "balance",
              "type": "uint256"
            },
            {
              "internalType": "uint256",
              "name": "deposited",
              "type": "uint256"
            },
            {
              "internalType": "string",
              "name": "url",
              "type": "string"
            },
            {
              "internalType": "address[]",
              "name": "signatories",
              "type": "address[]"
            }
          ],
          "internalType": "struct Fintrust.Campaign",
          "name": "",
          "type": "tuple"
        }
      ],
      "stateMutability": "view",
      "type": "function"
    },
    {
      "inputs": [
        {
          "internalType": "bytes32",
          "name": "role",
          "type": "bytes32"
        }
      ],
      "name": "getRoleAdmin",
      "outputs": [
        {
          "internalType": "bytes32",
          "name": "",
          "type": "bytes32"
        }
      ],
      "stateMutability": "view",
      "type": "function"
    },
    {
      "inputs": [
        {
          "internalType": "bytes32",
          "name": "role",
          "type": "bytes32"
        },
        {
          "internalType": "address",
          "name": "account",
          "type": "address"
        }
      ],
      "name": "grantRole",
      "outputs": [],
      "stateMutability": "nonpayable",
      "type": "function"
    },
    {
      "inputs": [
        {
          "internalType": "bytes32",
          "name": "role",
          "type": "bytes32"
        },
        {
          "internalType": "address",
          "name": "account",
          "type": "address"
        }
      ],
      "name": "hasRole",
      "outputs": [
        {
          "internalType": "bool",
          "name": "",
          "type": "bool"
        }
      ],
      "stateMutability": "view",
      "type": "function"
    },
    {
      "inputs": [],
      "name": "pause",
      "outputs": [],
      "stateMutability": "nonpayable",
      "type": "function"
    },
    {
      "inputs": [],
      "name": "paused",
      "outputs": [
        {
          "internalType": "bool",
          "name": "",
          "type": "bool"
        }
      ],
      "stateMutability": "view",
      "type": "function"
    },
    {
      "inputs": [
        {
          "internalType": "address",
          "name": "creator",
          "type": "address"
        },
        {
          "internalType": "uint256",
          "name": "_campaignId",
          "type": "uint256"
        }
      ],
      "name": "rejectWithdraw",
      "outputs": [],
      "stateMutability": "nonpayable",
      "type": "function"
    },
    {
      "inputs": [
        {
          "internalType": "bytes32",
          "name": "role",
          "type": "bytes32"
        },
        {
          "internalType": "address",
          "name": "account",
          "type": "address"
        }
      ],
      "name": "renounceRole",
      "outputs": [],
      "stateMutability": "nonpayable",
      "type": "function"
    },
    {
      "inputs": [
        {
          "internalType": "uint256",
          "name": "_campaignId",
          "type": "uint256"
        }
      ],
      "name": "requestWithdraw",
      "outputs": [],
      "stateMutability": "nonpayable",
      "type": "function"
    },
    {
      "inputs": [
        {
          "internalType": "bytes32",
          "name": "role",
          "type": "bytes32"
        },
        {
          "internalType": "address",
          "name": "account",
          "type": "address"
        }
      ],
      "name": "revokeRole",
      "outputs": [],
      "stateMutability": "nonpayable",
      "type": "function"
    },
    {
      "inputs": [
        {
          "internalType": "bytes4",
          "name": "interfaceId",
          "type": "bytes4"
        }
      ],
      "name": "supportsInterface",
      "outputs": [
        {
          "internalType": "bool",
          "name": "",
          "type": "bool"
        }
      ],
      "stateMutability": "view",
      "type": "function"
    },
    {
      "inputs": [],
      "name": "unpause",
      "outputs": [],
      "stateMutability": "nonpayable",
      "type": "function"
    },
    {
      "inputs": [
        {
          "internalType": "uint256",
          "name": "_campaignId",
          "type": "uint256"
        },
        {
          "internalType": "uint256",
          "name": "amount",
          "type": "uint256"
        }
      ],
      "name": "withdraw",
      "outputs": [],
      "stateMutability": "nonpayable",
      "type": "function"
    }
  ],
  "bytecode": "0x60806040523480156200001157600080fd5b5060008060006101000a81548160ff021916908315150217905550620000416000801b336200007960201b60201c565b620000737f65d7a28e3265b37a6474929f336521b332c1681b933f6cb9f3376673440d862a336200007960201b60201c565b620001dd565b6200008b82826200016a60201b60201c565b6200016657600180600084815260200190815260200160002060000160008373ffffffffffffffffffffffffffffffffffffffff1673ffffffffffffffffffffffffffffffffffffffff16815260200190815260200160002060006101000a81548160ff0219169083151502179055506200010b620001d560201b60201c565b73ffffffffffffffffffffffffffffffffffffffff168173ffffffffffffffffffffffffffffffffffffffff16837f2f8788117e7eff1d82e926ec794901d17c78024a50270940304540a733656f0d60405160405180910390a45b5050565b60006001600084815260200190815260200160002060000160008373ffffffffffffffffffffffffffffffffffffffff1673ffffffffffffffffffffffffffffffffffffffff16815260200190815260200160002060009054906101000a900460ff16905092915050565b600033905090565b615b5e80620001ed6000396000f3fe60806040526004361061014b5760003560e01c80635c975abb116100b657806395d46d001161006f57806395d46d0014610472578063996e31d8146104af578063a1ebf35d146104d8578063a217fddf14610503578063d547741f1461052e578063e63ab1e9146105575761014b565b80635c975abb14610383578063745400c9146103ae5780638456cb59146103d757806386cdf604146103ee57806391d14854146104195780639512646a146104565761014b565b806329d36c461161010857806329d36c461461028b5780632f2ff15d146102b457806336568abe146102dd5780633f4ba83a14610306578063441a3e701461031d57806344683845146103465761014b565b806301ffc9a7146101505780630488a2cf1461018d5780630efe6a8b146101ca57806312065fe0146101e65780631a01173514610211578063248a9ca31461024e575b600080fd5b34801561015c57600080fd5b506101776004803603810190610172919061450c565b610582565b6040516101849190614554565b60405180910390f35b34801561019957600080fd5b506101b460048036038101906101af91906145cd565b6105fc565b6040516101c19190614a2e565b60405180910390f35b6101e460048036038101906101df9190614a7c565b610978565b005b3480156101f257600080fd5b506101fb6110d9565b6040516102089190614ade565b60405180910390f35b34801561021d57600080fd5b5061023860048036038101906102339190614af9565b6110e1565b6040516102459190614c6e565b60405180910390f35b34801561025a57600080fd5b5061027560048036038101906102709190614cc6565b611439565b6040516102829190614d02565b60405180910390f35b34801561029757600080fd5b506102b260048036038101906102ad9190614d1d565b611459565b005b3480156102c057600080fd5b506102db60048036038101906102d69190614d5d565b6114eb565b005b3480156102e957600080fd5b5061030460048036038101906102ff9190614d5d565b61150c565b005b34801561031257600080fd5b5061031b61158f565b005b34801561032957600080fd5b50610344600480360381019061033f9190614d9d565b6115c4565b005b34801561035257600080fd5b5061036d600480360381019061036891906145cd565b611eb4565b60405161037a9190614a2e565b60405180910390f35b34801561038f57600080fd5b5061039861246d565b6040516103a59190614554565b60405180910390f35b3480156103ba57600080fd5b506103d560048036038101906103d09190614ddd565b612483565b005b3480156103e357600080fd5b506103ec61261e565b005b3480156103fa57600080fd5b50610403612653565b6040516104109190614a2e565b60405180910390f35b34801561042557600080fd5b50610440600480360381019061043b9190614d5d565b612990565b60405161044d9190614554565b60405180910390f35b610470600480360381019061046b9190614ec5565b6129fb565b005b34801561047e57600080fd5b50610499600480360381019061049491906145cd565b61332b565b6040516104a69190615092565b60405180910390f35b3480156104bb57600080fd5b506104d660048036038101906104d19190614d1d565b6134f1565b005b3480156104e457600080fd5b506104ed6135bc565b6040516104fa9190614d02565b60405180910390f35b34801561050f57600080fd5b506105186135e0565b6040516105259190614d02565b60405180910390f35b34801561053a57600080fd5b5061055560048036038101906105509190614d5d565b6135e7565b005b34801561056357600080fd5b5061056c613608565b6040516105799190614d02565b60405180910390f35b60007f7965db0b000000000000000000000000000000000000000000000000000000007bffffffffffffffffffffffffffffffffffffffffffffffffffffffff1916827bffffffffffffffffffffffffffffffffffffffffffffffffffffffff191614806105f557506105f48261362c565b5b9050919050565b6060600360008373ffffffffffffffffffffffffffffffffffffffff1673ffffffffffffffffffffffffffffffffffffffff168152602001908152602001600020805480602002602001604051908101604052809291908181526020016000905b8282101561096d5783829060005260206000209060080201604051806101c00160405290816000820160009054906101000a900460ff161515151581526020016000820160019054906101000a900460ff161515151581526020016000820160029054906101000a900460ff1660ff1660ff1681526020016000820160039054906101000a900460ff1660ff1660ff1681526020016000820160049054906101000a900460ff16600381111561071657610715614651565b5b600381111561072857610727614651565b5b81526020016000820160059054906101000a900473ffffffffffffffffffffffffffffffffffffffff1673ffffffffffffffffffffffffffffffffffffffff1673ffffffffffffffffffffffffffffffffffffffff1681526020016001820160009054906101000a90046fffffffffffffffffffffffffffffffff166fffffffffffffffffffffffffffffffff166fffffffffffffffffffffffffffffffff1681526020016001820160109054906101000a90046fffffffffffffffffffffffffffffffff166fffffffffffffffffffffffffffffffff166fffffffffffffffffffffffffffffffff1681526020016002820154815260200160038201548152602001600482015481526020016005820154815260200160068201805461084e906150e3565b80601f016020809104026020016040519081016040528092919081815260200182805461087a906150e3565b80156108c75780601f1061089c576101008083540402835291602001916108c7565b820191906000526020600020905b8154815290600101906020018083116108aa57829003601f168201915b505050505081526020016007820180548060200260200160405190810160405280929190818152602001828054801561095557602002820191906000526020600020905b8160009054906101000a900473ffffffffffffffffffffffffffffffffffffffff1673ffffffffffffffffffffffffffffffffffffffff168152602001906001019080831161090b575b5050505050815250508152602001906001019061065d565b505050509050919050565b8034146109ba576040517f08c379a00000000000000000000000000000000000000000000000000000000081526004016109b190615172565b60405180910390fd5b6000600360008573ffffffffffffffffffffffffffffffffffffffff1673ffffffffffffffffffffffffffffffffffffffff16815260200190815260200160002090506000818481548110610a1257610a11615192565b5b9060005260206000209060080201604051806101c00160405290816000820160009054906101000a900460ff161515151581526020016000820160019054906101000a900460ff161515151581526020016000820160029054906101000a900460ff1660ff1660ff1681526020016000820160039054906101000a900460ff1660ff1660ff1681526020016000820160049054906101000a900460ff166003811115610ac157610ac0614651565b5b6003811115610ad357610ad2614651565b5b81526020016000820160059054906101000a900473ffffffffffffffffffffffffffffffffffffffff1673ffffffffffffffffffffffffffffffffffffffff1673ffffffffffffffffffffffffffffffffffffffff1681526020016001820160009054906101000a90046fffffffffffffffffffffffffffffffff166fffffffffffffffffffffffffffffffff166fffffffffffffffffffffffffffffffff1681526020016001820160109054906101000a90046fffffffffffffffffffffffffffffffff166fffffffffffffffffffffffffffffffff166fffffffffffffffffffffffffffffffff16815260200160028201548152602001600382015481526020016004820154815260200160058201548152602001600682018054610bf9906150e3565b80601f0160208091040260200160405190810160405280929190818152602001828054610c25906150e3565b8015610c725780601f10610c4757610100808354040283529160200191610c72565b820191906000526020600020905b815481529060010190602001808311610c5557829003601f168201915b5050505050815260200160078201805480602002602001604051908101604052809291908181526020018280548015610d0057602002820191906000526020600020905b8160009054906101000a900473ffffffffffffffffffffffffffffffffffffffff1673ffffffffffffffffffffffffffffffffffffffff1681526020019060010190808311610cb6575b505050505081525050905060016003811115610d1f57610d1e614651565b5b81608001516003811115610d3657610d35614651565b5b14610d76576040517f08c379a0000000000000000000000000000000000000000000000000000000008152600401610d6d906151e7565b60405180910390fd5b8060000151610dbc57836040517ff2e9320b000000000000000000000000000000000000000000000000000000008152600401610db39190614ade565b60405180910390fd5b80610120015181610160015110610e3b57600281608001906003811115610de657610de5614651565b5b90816003811115610dfa57610df9614651565b5b81525050836040517f9444c91d000000000000000000000000000000000000000000000000000000008152600401610e329190614ade565b60405180910390fd5b3373ffffffffffffffffffffffffffffffffffffffff168160a0015173ffffffffffffffffffffffffffffffffffffffff16857fa3d2cbcb90e0658235d4ba62aed9a50c231df9bc5bbfb74c95badbc798f38d1a60405160405180910390a4348161014001818151610ead9190615236565b91508181525050348161016001818151610ec79190615236565b9150818152505080828581548110610ee257610ee1615192565b5b906000526020600020906008020160008201518160000160006101000a81548160ff02191690831515021790555060208201518160000160016101000a81548160ff02191690831515021790555060408201518160000160026101000a81548160ff021916908360ff16021790555060608201518160000160036101000a81548160ff021916908360ff16021790555060808201518160000160046101000a81548160ff02191690836003811115610f9d57610f9c614651565b5b021790555060a08201518160000160056101000a81548173ffffffffffffffffffffffffffffffffffffffff021916908373ffffffffffffffffffffffffffffffffffffffff16021790555060c08201518160010160006101000a8154816fffffffffffffffffffffffffffffffff02191690836fffffffffffffffffffffffffffffffff16021790555060e08201518160010160106101000a8154816fffffffffffffffffffffffffffffffff02191690836fffffffffffffffffffffffffffffffff16021790555061010082015181600201556101208201518160030155610140820151816004015561016082015181600501556101808201518160060190805190602001906110b092919061426f565b506101a08201518160070190805190602001906110ce9291906142f5565b509050505050505050565b600047905090565b6110e961437f565b600360008373ffffffffffffffffffffffffffffffffffffffff1673ffffffffffffffffffffffffffffffffffffffff168152602001908152602001600020838154811061113a57611139615192565b5b9060005260206000209060080201604051806101c00160405290816000820160009054906101000a900460ff161515151581526020016000820160019054906101000a900460ff161515151581526020016000820160029054906101000a900460ff1660ff1660ff1681526020016000820160039054906101000a900460ff1660ff1660ff1681526020016000820160049054906101000a900460ff1660038111156111e9576111e8614651565b5b60038111156111fb576111fa614651565b5b81526020016000820160059054906101000a900473ffffffffffffffffffffffffffffffffffffffff1673ffffffffffffffffffffffffffffffffffffffff1673ffffffffffffffffffffffffffffffffffffffff1681526020016001820160009054906101000a90046fffffffffffffffffffffffffffffffff166fffffffffffffffffffffffffffffffff166fffffffffffffffffffffffffffffffff1681526020016001820160109054906101000a90046fffffffffffffffffffffffffffffffff166fffffffffffffffffffffffffffffffff166fffffffffffffffffffffffffffffffff16815260200160028201548152602001600382015481526020016004820154815260200160058201548152602001600682018054611321906150e3565b80601f016020809104026020016040519081016040528092919081815260200182805461134d906150e3565b801561139a5780601f1061136f5761010080835404028352916020019161139a565b820191906000526020600020905b81548152906001019060200180831161137d57829003601f168201915b505050505081526020016007820180548060200260200160405190810160405280929190818152602001828054801561142857602002820191906000526020600020905b8160009054906101000a900473ffffffffffffffffffffffffffffffffffffffff1673ffffffffffffffffffffffffffffffffffffffff16815260200190600101908083116113de575b505050505081525050905092915050565b600060016000838152602001908152602001600020600101549050919050565b60006114658383613696565b90503373ffffffffffffffffffffffffffffffffffffffff168160000160059054906101000a900473ffffffffffffffffffffffffffffffffffffffff1673ffffffffffffffffffffffffffffffffffffffff16837f1f29e6b93248b40abc43baa875e1e223cfbffbc58d44f7343e74af1cd0feee4c60405160405180910390a4505050565b6114f482611439565b6114fd81613c3c565b6115078383613c50565b505050565b611514613d30565b73ffffffffffffffffffffffffffffffffffffffff168173ffffffffffffffffffffffffffffffffffffffff1614611581576040517f08c379a0000000000000000000000000000000000000000000000000000000008152600401611578906152fe565b60405180910390fd5b61158b8282613d38565b5050565b7f65d7a28e3265b37a6474929f336521b332c1681b933f6cb9f3376673440d862a6115b981613c3c565b6115c1613e1a565b50565b6000600360003373ffffffffffffffffffffffffffffffffffffffff1673ffffffffffffffffffffffffffffffffffffffff1681526020019081526020016000209050600081848154811061161c5761161b615192565b5b9060005260206000209060080201604051806101c00160405290816000820160009054906101000a900460ff161515151581526020016000820160019054906101000a900460ff161515151581526020016000820160029054906101000a900460ff1660ff1660ff1681526020016000820160039054906101000a900460ff1660ff1660ff1681526020016000820160049054906101000a900460ff1660038111156116cb576116ca614651565b5b60038111156116dd576116dc614651565b5b81526020016000820160059054906101000a900473ffffffffffffffffffffffffffffffffffffffff1673ffffffffffffffffffffffffffffffffffffffff1673ffffffffffffffffffffffffffffffffffffffff1681526020016001820160009054906101000a90046fffffffffffffffffffffffffffffffff166fffffffffffffffffffffffffffffffff166fffffffffffffffffffffffffffffffff1681526020016001820160109054906101000a90046fffffffffffffffffffffffffffffffff166fffffffffffffffffffffffffffffffff166fffffffffffffffffffffffffffffffff16815260200160028201548152602001600382015481526020016004820154815260200160058201548152602001600682018054611803906150e3565b80601f016020809104026020016040519081016040528092919081815260200182805461182f906150e3565b801561187c5780601f106118515761010080835404028352916020019161187c565b820191906000526020600020905b81548152906001019060200180831161185f57829003601f168201915b505050505081526020016007820180548060200260200160405190810160405280929190818152602001828054801561190a57602002820191906000526020600020905b8160009054906101000a900473ffffffffffffffffffffffffffffffffffffffff1673ffffffffffffffffffffffffffffffffffffffff16815260200190600101908083116118c0575b50505050508152505090508060a0015173ffffffffffffffffffffffffffffffffffffffff163373ffffffffffffffffffffffffffffffffffffffff161461198957336040517f8e4a23d6000000000000000000000000000000000000000000000000000000008152600401611980919061532d565b60405180910390fd5b6001600381111561199d5761199c614651565b5b816080015160038111156119b4576119b3614651565b5b141580156119eb5750600260038111156119d1576119d0614651565b5b816080015160038111156119e8576119e7614651565b5b14155b15611a2f5783336040517f26508b5d000000000000000000000000000000000000000000000000000000008152600401611a26929190615348565b60405180910390fd5b8060200151611a73576040517f08c379a0000000000000000000000000000000000000000000000000000000008152600401611a6a906153bd565b60405180910390fd5b806060015160ff16816040015160ff1614611ac557336040517f8e4a23d6000000000000000000000000000000000000000000000000000000008152600401611abc919061532d565b60405180910390fd5b828161014001511015611b0d576040517f08c379a0000000000000000000000000000000000000000000000000000000008152600401611b0490615429565b60405180910390fd5b60008160200190151590811515815250506000816040019060ff16908160ff168152505060026003811115611b4557611b44614651565b5b81608001516003811115611b5c57611b5b614651565b5b1415611bae57600083826101400151611b759190615449565b1415611bad57600381608001906003811115611b9457611b93614651565b5b90816003811115611ba857611ba7614651565b5b815250505b5b828161014001818151611bc19190615449565b91508181525050600381608001906003811115611be157611be0614651565b5b90816003811115611bf557611bf4614651565b5b8152505080828581548110611c0d57611c0c615192565b5b906000526020600020906008020160008201518160000160006101000a81548160ff02191690831515021790555060208201518160000160016101000a81548160ff02191690831515021790555060408201518160000160026101000a81548160ff021916908360ff16021790555060608201518160000160036101000a81548160ff021916908360ff16021790555060808201518160000160046101000a81548160ff02191690836003811115611cc857611cc7614651565b5b021790555060a08201518160000160056101000a81548173ffffffffffffffffffffffffffffffffffffffff021916908373ffffffffffffffffffffffffffffffffffffffff16021790555060c08201518160010160006101000a8154816fffffffffffffffffffffffffffffffff02191690836fffffffffffffffffffffffffffffffff16021790555060e08201518160010160106101000a8154816fffffffffffffffffffffffffffffffff02191690836fffffffffffffffffffffffffffffffff1602179055506101008201518160020155610120820151816003015561014082015181600401556101608201518160050155610180820151816006019080519060200190611ddb92919061426f565b506101a0820151816007019080519060200190611df99291906142f5565b5090505060008160a0015173ffffffffffffffffffffffffffffffffffffffff1684604051611e27906154ab565b60006040518083038185875af1925050503d8060008114611e64576040519150601f19603f3d011682016040523d82523d6000602084013e611e69565b606091505b5050905080611ead576040517f08c379a0000000000000000000000000000000000000000000000000000000008152600401611ea49061550c565b60405180910390fd5b5050505050565b60606000600460008473ffffffffffffffffffffffffffffffffffffffff1673ffffffffffffffffffffffffffffffffffffffff168152602001908152602001600020805480602002602001604051908101604052809291908181526020016000905b8282101561207157838290600052602060002090600302016040518060a00160405290816000820160009054906101000a900473ffffffffffffffffffffffffffffffffffffffff1673ffffffffffffffffffffffffffffffffffffffff1673ffffffffffffffffffffffffffffffffffffffff1681526020016000820160149054906101000a900460ff161515151581526020016000820160159054906101000a900460ff1615151515815260200160018201548152602001600282018054611fe0906150e3565b80601f016020809104026020016040519081016040528092919081815260200182805461200c906150e3565b80156120595780601f1061202e57610100808354040283529160200191612059565b820191906000526020600020905b81548152906001019060200180831161203c57829003601f168201915b50505050508152505081526020019060010190611f17565b5050505090506000805b825181101561246557600083828151811061209957612098615192565b5b602002602001015160000151905060008483815181106120bc576120bb615192565b5b60200260200101516060015190506000600360008473ffffffffffffffffffffffffffffffffffffffff1673ffffffffffffffffffffffffffffffffffffffff168152602001908152602001600020828154811061211d5761211c615192565b5b9060005260206000209060080201604051806101c00160405290816000820160009054906101000a900460ff161515151581526020016000820160019054906101000a900460ff161515151581526020016000820160029054906101000a900460ff1660ff1660ff1681526020016000820160039054906101000a900460ff1660ff1660ff1681526020016000820160049054906101000a900460ff1660038111156121cc576121cb614651565b5b60038111156121de576121dd614651565b5b81526020016000820160059054906101000a900473ffffffffffffffffffffffffffffffffffffffff1673ffffffffffffffffffffffffffffffffffffffff1673ffffffffffffffffffffffffffffffffffffffff1681526020016001820160009054906101000a90046fffffffffffffffffffffffffffffffff166fffffffffffffffffffffffffffffffff166fffffffffffffffffffffffffffffffff1681526020016001820160109054906101000a90046fffffffffffffffffffffffffffffffff166fffffffffffffffffffffffffffffffff166fffffffffffffffffffffffffffffffff16815260200160028201548152602001600382015481526020016004820154815260200160058201548152602001600682018054612304906150e3565b80601f0160208091040260200160405190810160405280929190818152602001828054612330906150e3565b801561237d5780601f106123525761010080835404028352916020019161237d565b820191906000526020600020905b81548152906001019060200180831161236057829003601f168201915b505050505081526020016007820180548060200260200160405190810160405280929190818152602001828054801561240b57602002820191906000526020600020905b8160009054906101000a900473ffffffffffffffffffffffffffffffffffffffff1673ffffffffffffffffffffffffffffffffffffffff16815260200190600101908083116123c1575b505050505081525050905080602001511561244f578087868151811061243457612433615192565b5b602002602001018190525060018561244c9190615236565b94505b505050808061245d9061552c565b91505061207b565b505050919050565b60008060009054906101000a900460ff16905090565b6000600360003373ffffffffffffffffffffffffffffffffffffffff1673ffffffffffffffffffffffffffffffffffffffff168152602001908152602001600020905060008183815481106124db576124da615192565b5b90600052602060002090600802019050600160038111156124ff576124fe614651565b5b8160000160049054906101000a900460ff16600381111561252357612522614651565b5b14612563576040517f08c379a000000000000000000000000000000000000000000000000000000000815260040161255a906151e7565b60405180910390fd5b8060000160019054906101000a900460ff16156125b5576040517f08c379a00000000000000000000000000000000000000000000000000000000081526004016125ac906155c1565b60405180910390fd5b60008160050154116125fc576040517f08c379a00000000000000000000000000000000000000000000000000000000081526004016125f39061562d565b60405180910390fd5b60018160000160016101000a81548160ff021916908315150217905550505050565b7f65d7a28e3265b37a6474929f336521b332c1681b933f6cb9f3376673440d862a61264881613c3c565b612650613e7c565b50565b60606005805480602002602001604051908101604052809291908181526020016000905b828210156129875783829060005260206000209060080201604051806101c00160405290816000820160009054906101000a900460ff161515151581526020016000820160019054906101000a900460ff161515151581526020016000820160029054906101000a900460ff1660ff1660ff1681526020016000820160039054906101000a900460ff1660ff1660ff1681526020016000820160049054906101000a900460ff1660038111156127305761272f614651565b5b600381111561274257612741614651565b5b81526020016000820160059054906101000a900473ffffffffffffffffffffffffffffffffffffffff1673ffffffffffffffffffffffffffffffffffffffff1673ffffffffffffffffffffffffffffffffffffffff1681526020016001820160009054906101000a90046fffffffffffffffffffffffffffffffff166fffffffffffffffffffffffffffffffff166fffffffffffffffffffffffffffffffff1681526020016001820160109054906101000a90046fffffffffffffffffffffffffffffffff166fffffffffffffffffffffffffffffffff166fffffffffffffffffffffffffffffffff16815260200160028201548152602001600382015481526020016004820154815260200160058201548152602001600682018054612868906150e3565b80601f0160208091040260200160405190810160405280929190818152602001828054612894906150e3565b80156128e15780601f106128b6576101008083540402835291602001916128e1565b820191906000526020600020905b8154815290600101906020018083116128c457829003601f168201915b505050505081526020016007820180548060200260200160405190810160405280929190818152602001828054801561296f57602002820191906000526020600020905b8160009054906101000a900473ffffffffffffffffffffffffffffffffffffffff1673ffffffffffffffffffffffffffffffffffffffff1681526020019060010190808311612925575b50505050508152505081526020019060010190612677565b50505050905090565b60006001600084815260200190815260200160002060000160008373ffffffffffffffffffffffffffffffffffffffff1673ffffffffffffffffffffffffffffffffffffffff16815260200190815260200160002060009054906101000a900460ff16905092915050565b612a0433613ede565b612a43576040517f08c379a0000000000000000000000000000000000000000000000000000000008152600401612a3a90615699565b60405180910390fd5b6101f4831015612a8a57826040517f3728b83d000000000000000000000000000000000000000000000000000000008152600401612a819190614ade565b60405180910390fd5b6003828290501080612a9f575060fa82829050115b15612adf576040517f08c379a0000000000000000000000000000000000000000000000000000000008152600401612ad690615705565b60405180910390fd5b6000600360003373ffffffffffffffffffffffffffffffffffffffff1673ffffffffffffffffffffffffffffffffffffffff168152602001908152602001600020905060008180549050905060008484905090506000604051806101c00160405280600115158152602001600015158152602001600060ff1681526020018360ff16815260200160016003811115612b7a57612b79614651565b5b81526020013373ffffffffffffffffffffffffffffffffffffffff168152602001426fffffffffffffffffffffffffffffffff16815260200160006fffffffffffffffffffffffffffffffff16815260200184815260200188815260200160008152602001600081526020018a8a8080601f016020809104026020016040519081016040528093929190818152602001838380828437600081840152601f19601f820116905080830192505050505050508152602001878780806020026020016040519081016040528093929190818152602001838360200280828437600081840152601f19601f8201169050808301925050505050505081525090508381908060018154018082558091505060019003906000526020600020906008020160009091909190915060008201518160000160006101000a81548160ff02191690831515021790555060208201518160000160016101000a81548160ff02191690831515021790555060408201518160000160026101000a81548160ff021916908360ff16021790555060608201518160000160036101000a81548160ff021916908360ff16021790555060808201518160000160046101000a81548160ff02191690836003811115612d4f57612d4e614651565b5b021790555060a08201518160000160056101000a81548173ffffffffffffffffffffffffffffffffffffffff021916908373ffffffffffffffffffffffffffffffffffffffff16021790555060c08201518160010160006101000a8154816fffffffffffffffffffffffffffffffff02191690836fffffffffffffffffffffffffffffffff16021790555060e08201518160010160106101000a8154816fffffffffffffffffffffffffffffffff02191690836fffffffffffffffffffffffffffffffff1602179055506101008201518160020155610120820151816003015561014082015181600401556101608201518160050155610180820151816006019080519060200190612e6292919061426f565b506101a0820151816007019080519060200190612e809291906142f5565b5050506000868680806020026020016040519081016040528093929190818152602001838360200280828437600081840152601f19601f82011690508083019250505050505050905060005b81518110156130c8576000828281518110612eea57612ee9615192565b5b602002602001015190503373ffffffffffffffffffffffffffffffffffffffff168173ffffffffffffffffffffffffffffffffffffffff161415612f2d57600080fd5b612f3681613ede565b612f3f57600080fd5b60006040518060a001604052808660a0015173ffffffffffffffffffffffffffffffffffffffff168152602001600015158152602001600015158152602001866101000151815260200186610180015181525090506000600460008473ffffffffffffffffffffffffffffffffffffffff1673ffffffffffffffffffffffffffffffffffffffff16815260200190815260200160002090508082908060018154018082558091505060019003906000526020600020906003020160009091909190915060008201518160000160006101000a81548173ffffffffffffffffffffffffffffffffffffffff021916908373ffffffffffffffffffffffffffffffffffffffff16021790555060208201518160000160146101000a81548160ff02191690831515021790555060408201518160000160156101000a81548160ff0219169083151502179055506060820151816001015560808201518160020190805190602001906130af92919061426f565b50505050505080806130c09061552c565b915050612ecc565b50600582908060018154018082558091505060019003906000526020600020906008020160009091909190915060008201518160000160006101000a81548160ff02191690831515021790555060208201518160000160016101000a81548160ff02191690831515021790555060408201518160000160026101000a81548160ff021916908360ff16021790555060608201518160000160036101000a81548160ff021916908360ff16021790555060808201518160000160046101000a81548160ff021916908360038111156131a2576131a1614651565b5b021790555060a08201518160000160056101000a81548173ffffffffffffffffffffffffffffffffffffffff021916908373ffffffffffffffffffffffffffffffffffffffff16021790555060c08201518160010160006101000a8154816fffffffffffffffffffffffffffffffff02191690836fffffffffffffffffffffffffffffffff16021790555060e08201518160010160106101000a8154816fffffffffffffffffffffffffffffffff02191690836fffffffffffffffffffffffffffffffff16021790555061010082015181600201556101208201518160030155610140820151816004015561016082015181600501556101808201518160060190805190602001906132b592919061426f565b506101a08201518160070190805190602001906132d39291906142f5565b5050503373ffffffffffffffffffffffffffffffffffffffff168261010001517f633109eec20320eded000fc1e2634211aa7e92ba3f5b15faf6dcdafca05094e460405160405180910390a350505050505050505050565b6060600460008373ffffffffffffffffffffffffffffffffffffffff1673ffffffffffffffffffffffffffffffffffffffff168152602001908152602001600020805480602002602001604051908101604052809291908181526020016000905b828210156134e657838290600052602060002090600302016040518060a00160405290816000820160009054906101000a900473ffffffffffffffffffffffffffffffffffffffff1673ffffffffffffffffffffffffffffffffffffffff1673ffffffffffffffffffffffffffffffffffffffff1681526020016000820160149054906101000a900460ff161515151581526020016000820160159054906101000a900460ff1615151515815260200160018201548152602001600282018054613455906150e3565b80601f0160208091040260200160405190810160405280929190818152602001828054613481906150e3565b80156134ce5780601f106134a3576101008083540402835291602001916134ce565b820191906000526020600020905b8154815290600101906020018083116134b157829003601f168201915b5050505050815250508152602001906001019061338c565b505050509050919050565b60006134fd8383613696565b90503373ffffffffffffffffffffffffffffffffffffffff168160000160059054906101000a900473ffffffffffffffffffffffffffffffffffffffff1673ffffffffffffffffffffffffffffffffffffffff16837f3ffcd92ab0feb4b6871585fae9ce50f9ef84e1149eff4f2d573bfe390c37f05a60405160405180910390a460018160000160028282829054906101000a900460ff1661359f9190615725565b92506101000a81548160ff021916908360ff160217905550505050565b7fe2f4eaae4a9751e85a3e4a7b9587827a877f29914755229b07a7b2da98285f7081565b6000801b81565b6135f082611439565b6135f981613c3c565b6136038383613d38565b505050565b7f65d7a28e3265b37a6474929f336521b332c1681b933f6cb9f3376673440d862a81565b60007f01ffc9a7000000000000000000000000000000000000000000000000000000007bffffffffffffffffffffffffffffffffffffffffffffffffffffffff1916827bffffffffffffffffffffffffffffffffffffffffffffffffffffffff1916149050919050565b600080600360008573ffffffffffffffffffffffffffffffffffffffff1673ffffffffffffffffffffffffffffffffffffffff168152602001908152602001600020905060008184815481106136ef576136ee615192565b5b906000526020600020906008020190506001600381111561371357613712614651565b5b8160000160049054906101000a900460ff16600381111561373757613736614651565b5b1461377b5783856040517f26508b5d000000000000000000000000000000000000000000000000000000008152600401613772929190615348565b60405180910390fd5b8060000160019054906101000a900460ff166137cc576040517f08c379a00000000000000000000000000000000000000000000000000000000081526004016137c3906153bd565b60405180910390fd5b6000600460003373ffffffffffffffffffffffffffffffffffffffff1673ffffffffffffffffffffffffffffffffffffffff168152602001908152602001600020805480602002602001604051908101604052809291908181526020016000905b8282101561398757838290600052602060002090600302016040518060a00160405290816000820160009054906101000a900473ffffffffffffffffffffffffffffffffffffffff1673ffffffffffffffffffffffffffffffffffffffff1673ffffffffffffffffffffffffffffffffffffffff1681526020016000820160149054906101000a900460ff161515151581526020016000820160159054906101000a900460ff16151515158152602001600182015481526020016002820180546138f6906150e3565b80601f0160208091040260200160405190810160405280929190818152602001828054613922906150e3565b801561396f5780601f106139445761010080835404028352916020019161396f565b820191906000526020600020905b81548152906001019060200180831161395257829003601f168201915b5050505050815250508152602001906001019061382d565b5050505090506000613997614444565b600080600090505b8451811015613a835785600201548582815181106139c0576139bf615192565b5b602002602001015160600151148015613a4657508560000160059054906101000a900473ffffffffffffffffffffffffffffffffffffffff1673ffffffffffffffffffffffffffffffffffffffff16858281518110613a2257613a21615192565b5b60200260200101516000015173ffffffffffffffffffffffffffffffffffffffff16145b15613a705760019350848181518110613a6257613a61615192565b5b602002602001015192508091505b8080613a7b9061552c565b91505061399f565b5082613ac657336040517f8e4a23d6000000000000000000000000000000000000000000000000000000008152600401613abd919061532d565b60405180910390fd5b816020015115613b0b576040517f08c379a0000000000000000000000000000000000000000000000000000000008152600401613b02906157a8565b60405180910390fd5b600182602001901515908115158152505081600460003373ffffffffffffffffffffffffffffffffffffffff1673ffffffffffffffffffffffffffffffffffffffff1681526020019081526020016000208281548110613b6e57613b6d615192565b5b906000526020600020906003020160008201518160000160006101000a81548173ffffffffffffffffffffffffffffffffffffffff021916908373ffffffffffffffffffffffffffffffffffffffff16021790555060208201518160000160146101000a81548160ff02191690831515021790555060408201518160000160156101000a81548160ff021916908315150217905550606082015181600101556080820151816002019080519060200190613c2992919061426f565b5090505084965050505050505092915050565b613c4d81613c48613d30565b613f03565b50565b613c5a8282612990565b613d2c57600180600084815260200190815260200160002060000160008373ffffffffffffffffffffffffffffffffffffffff1673ffffffffffffffffffffffffffffffffffffffff16815260200190815260200160002060006101000a81548160ff021916908315150217905550613cd1613d30565b73ffffffffffffffffffffffffffffffffffffffff168173ffffffffffffffffffffffffffffffffffffffff16837f2f8788117e7eff1d82e926ec794901d17c78024a50270940304540a733656f0d60405160405180910390a45b5050565b600033905090565b613d428282612990565b15613e165760006001600084815260200190815260200160002060000160008373ffffffffffffffffffffffffffffffffffffffff1673ffffffffffffffffffffffffffffffffffffffff16815260200190815260200160002060006101000a81548160ff021916908315150217905550613dbb613d30565b73ffffffffffffffffffffffffffffffffffffffff168173ffffffffffffffffffffffffffffffffffffffff16837ff6391f5c32d9c69d2a47ea670b442974b53935d1edc7fd64eb21e047a839171b60405160405180910390a45b5050565b613e22613fa0565b60008060006101000a81548160ff0219169083151502179055507f5db9ee0a495bf2e6ff9c91a7834c1ba4fdd244a5e8aa4e537bd38aeae4b073aa613e65613d30565b604051613e72919061532d565b60405180910390a1565b613e84613fe9565b60016000806101000a81548160ff0219169083151502179055507f62e78cea01bee320cd4e420270b5ea74000d11b0c9f74754ebdbfc544b05a258613ec7613d30565b604051613ed4919061532d565b60405180910390a1565b600080823b90506000811415613ef8576001915050613efe565b60009150505b919050565b613f0d8282612990565b613f9c57613f328173ffffffffffffffffffffffffffffffffffffffff166014614033565b613f408360001c6020614033565b604051602001613f5192919061589c565b6040516020818303038152906040526040517f08c379a0000000000000000000000000000000000000000000000000000000008152600401613f93919061590f565b60405180910390fd5b5050565b613fa861246d565b613fe7576040517f08c379a0000000000000000000000000000000000000000000000000000000008152600401613fde9061597d565b60405180910390fd5b565b613ff161246d565b15614031576040517f08c379a0000000000000000000000000000000000000000000000000000000008152600401614028906159e9565b60405180910390fd5b565b6060600060028360026140469190615a09565b6140509190615236565b67ffffffffffffffff81111561406957614068615a63565b5b6040519080825280601f01601f19166020018201604052801561409b5781602001600182028036833780820191505090505b5090507f3000000000000000000000000000000000000000000000000000000000000000816000815181106140d3576140d2615192565b5b60200101907effffffffffffffffffffffffffffffffffffffffffffffffffffffffffffff1916908160001a9053507f78000000000000000000000000000000000000000000000000000000000000008160018151811061413757614136615192565b5b60200101907effffffffffffffffffffffffffffffffffffffffffffffffffffffffffffff1916908160001a905350600060018460026141779190615a09565b6141819190615236565b90505b6001811115614221577f3031323334353637383961626364656600000000000000000000000000000000600f8616601081106141c3576141c2615192565b5b1a60f81b8282815181106141da576141d9615192565b5b60200101907effffffffffffffffffffffffffffffffffffffffffffffffffffffffffffff1916908160001a905350600485901c94508061421a90615a92565b9050614184565b5060008414614265576040517f08c379a000000000000000000000000000000000000000000000000000000000815260040161425c90615b08565b60405180910390fd5b8091505092915050565b82805461427b906150e3565b90600052602060002090601f01602090048101928261429d57600085556142e4565b82601f106142b657805160ff19168380011785556142e4565b828001600101855582156142e4579182015b828111156142e35782518255916020019190600101906142c8565b5b5090506142f1919061448d565b5090565b82805482825590600052602060002090810192821561436e579160200282015b8281111561436d5782518260006101000a81548173ffffffffffffffffffffffffffffffffffffffff021916908373ffffffffffffffffffffffffffffffffffffffff16021790555091602001919060010190614315565b5b50905061437b919061448d565b5090565b604051806101c00160405280600015158152602001600015158152602001600060ff168152602001600060ff168152602001600060038111156143c5576143c4614651565b5b8152602001600073ffffffffffffffffffffffffffffffffffffffff16815260200160006fffffffffffffffffffffffffffffffff16815260200160006fffffffffffffffffffffffffffffffff1681526020016000815260200160008152602001600081526020016000815260200160608152602001606081525090565b6040518060a00160405280600073ffffffffffffffffffffffffffffffffffffffff16815260200160001515815260200160001515815260200160008152602001606081525090565b5b808211156144a657600081600090555060010161448e565b5090565b600080fd5b600080fd5b60007fffffffff0000000000000000000000000000000000000000000000000000000082169050919050565b6144e9816144b4565b81146144f457600080fd5b50565b600081359050614506816144e0565b92915050565b600060208284031215614522576145216144aa565b5b6000614530848285016144f7565b91505092915050565b60008115159050919050565b61454e81614539565b82525050565b60006020820190506145696000830184614545565b92915050565b600073ffffffffffffffffffffffffffffffffffffffff82169050919050565b600061459a8261456f565b9050919050565b6145aa8161458f565b81146145b557600080fd5b50565b6000813590506145c7816145a1565b92915050565b6000602082840312156145e3576145e26144aa565b5b60006145f1848285016145b8565b91505092915050565b600081519050919050565b600082825260208201905092915050565b6000819050602082019050919050565b61462f81614539565b82525050565b600060ff82169050919050565b61464b81614635565b82525050565b7f4e487b7100000000000000000000000000000000000000000000000000000000600052602160045260246000fd5b6004811061469157614690614651565b5b50565b60008190506146a282614680565b919050565b60006146b282614694565b9050919050565b6146c2816146a7565b82525050565b6146d18161458f565b82525050565b60006fffffffffffffffffffffffffffffffff82169050919050565b6146fc816146d7565b82525050565b6000819050919050565b61471581614702565b82525050565b600081519050919050565b600082825260208201905092915050565b60005b8381101561475557808201518184015260208101905061473a565b83811115614764576000848401525b50505050565b6000601f19601f8301169050919050565b60006147868261471b565b6147908185614726565b93506147a0818560208601614737565b6147a98161476a565b840191505092915050565b600081519050919050565b600082825260208201905092915050565b6000819050602082019050919050565b60006147ec83836146c8565b60208301905092915050565b6000602082019050919050565b6000614810826147b4565b61481a81856147bf565b9350614825836147d0565b8060005b8381101561485657815161483d88826147e0565b9750614848836147f8565b925050600181019050614829565b5085935050505092915050565b60006101c08301600083015161487c6000860182614626565b50602083015161488f6020860182614626565b5060408301516148a26040860182614642565b5060608301516148b56060860182614642565b5060808301516148c860808601826146b9565b5060a08301516148db60a08601826146c8565b5060c08301516148ee60c08601826146f3565b5060e083015161490160e08601826146f3565b5061010083015161491661010086018261470c565b5061012083015161492b61012086018261470c565b5061014083015161494061014086018261470c565b5061016083015161495561016086018261470c565b5061018083015184820361018086015261496f828261477b565b9150506101a08301518482036101a086015261498b8282614805565b9150508091505092915050565b60006149a48383614863565b905092915050565b6000602082019050919050565b60006149c4826145fa565b6149ce8185614605565b9350836020820285016149e085614616565b8060005b85811015614a1c57848403895281516149fd8582614998565b9450614a08836149ac565b925060208a019950506001810190506149e4565b50829750879550505050505092915050565b60006020820190508181036000830152614a4881846149b9565b905092915050565b614a5981614702565b8114614a6457600080fd5b50565b600081359050614a7681614a50565b92915050565b600080600060608486031215614a9557614a946144aa565b5b6000614aa3868287016145b8565b9350506020614ab486828701614a67565b9250506040614ac586828701614a67565b9150509250925092565b614ad881614702565b82525050565b6000602082019050614af36000830184614acf565b92915050565b60008060408385031215614b1057614b0f6144aa565b5b6000614b1e85828601614a67565b9250506020614b2f858286016145b8565b9150509250929050565b60006101c083016000830151614b526000860182614626565b506020830151614b656020860182614626565b506040830151614b786040860182614642565b506060830151614b8b6060860182614642565b506080830151614b9e60808601826146b9565b5060a0830151614bb160a08601826146c8565b5060c0830151614bc460c08601826146f3565b5060e0830151614bd760e08601826146f3565b50610100830151614bec61010086018261470c565b50610120830151614c0161012086018261470c565b50610140830151614c1661014086018261470c565b50610160830151614c2b61016086018261470c565b50610180830151848203610180860152614c45828261477b565b9150506101a08301518482036101a0860152614c618282614805565b9150508091505092915050565b60006020820190508181036000830152614c888184614b39565b905092915050565b6000819050919050565b614ca381614c90565b8114614cae57600080fd5b50565b600081359050614cc081614c9a565b92915050565b600060208284031215614cdc57614cdb6144aa565b5b6000614cea84828501614cb1565b91505092915050565b614cfc81614c90565b82525050565b6000602082019050614d176000830184614cf3565b92915050565b60008060408385031215614d3457614d336144aa565b5b6000614d42858286016145b8565b9250506020614d5385828601614a67565b9150509250929050565b60008060408385031215614d7457614d736144aa565b5b6000614d8285828601614cb1565b9250506020614d93858286016145b8565b9150509250929050565b60008060408385031215614db457614db36144aa565b5b6000614dc285828601614a67565b9250506020614dd385828601614a67565b9150509250929050565b600060208284031215614df357614df26144aa565b5b6000614e0184828501614a67565b91505092915050565b600080fd5b600080fd5b600080fd5b60008083601f840112614e2f57614e2e614e0a565b5b8235905067ffffffffffffffff811115614e4c57614e4b614e0f565b5b602083019150836001820283011115614e6857614e67614e14565b5b9250929050565b60008083601f840112614e8557614e84614e0a565b5b8235905067ffffffffffffffff811115614ea257614ea1614e0f565b5b602083019150836020820283011115614ebe57614ebd614e14565b5b9250929050565b600080600080600060608688031215614ee157614ee06144aa565b5b600086013567ffffffffffffffff811115614eff57614efe6144af565b5b614f0b88828901614e19565b95509550506020614f1e88828901614a67565b935050604086013567ffffffffffffffff811115614f3f57614f3e6144af565b5b614f4b88828901614e6f565b92509250509295509295909350565b600081519050919050565b600082825260208201905092915050565b6000819050602082019050919050565b600060a083016000830151614f9e60008601826146c8565b506020830151614fb16020860182614626565b506040830151614fc46040860182614626565b506060830151614fd7606086018261470c565b5060808301518482036080860152614fef828261477b565b9150508091505092915050565b60006150088383614f86565b905092915050565b6000602082019050919050565b600061502882614f5a565b6150328185614f65565b93508360208202850161504485614f76565b8060005b8581101561508057848403895281516150618582614ffc565b945061506c83615010565b925060208a01995050600181019050615048565b50829750879550505050505092915050565b600060208201905081810360008301526150ac818461501d565b905092915050565b7f4e487b7100000000000000000000000000000000000000000000000000000000600052602260045260246000fd5b600060028204905060018216806150fb57607f821691505b6020821081141561510f5761510e6150b4565b5b50919050565b600082825260208201905092915050565b7f496e76616c696420616d6f756e74000000000000000000000000000000000000600082015250565b600061515c600e83615115565b915061516782615126565b602082019050919050565b6000602082019050818103600083015261518b8161514f565b9050919050565b7f4e487b7100000000000000000000000000000000000000000000000000000000600052603260045260246000fd5b50565b60006151d1600083615115565b91506151dc826151c1565b600082019050919050565b60006020820190508181036000830152615200816151c4565b9050919050565b7f4e487b7100000000000000000000000000000000000000000000000000000000600052601160045260246000fd5b600061524182614702565b915061524c83614702565b9250827fffffffffffffffffffffffffffffffffffffffffffffffffffffffffffffffff0382111561528157615280615207565b5b828201905092915050565b7f416363657373436f6e74726f6c3a2063616e206f6e6c792072656e6f756e636560008201527f20726f6c657320666f722073656c660000000000000000000000000000000000602082015250565b60006152e8602f83615115565b91506152f38261528c565b604082019050919050565b60006020820190508181036000830152615317816152db565b9050919050565b6153278161458f565b82525050565b6000602082019050615342600083018461531e565b92915050565b600060408201905061535d6000830185614acf565b61536a602083018461531e565b9392505050565b7f63616d706169676e207769746864726177206e6f742072657175657374656400600082015250565b60006153a7601f83615115565b91506153b282615371565b602082019050919050565b600060208201905081810360008301526153d68161539a565b9050919050565b7f496e73756666696369656e742046756e64730000000000000000000000000000600082015250565b6000615413601283615115565b915061541e826153dd565b602082019050919050565b6000602082019050818103600083015261544281615406565b9050919050565b600061545482614702565b915061545f83614702565b92508282101561547257615471615207565b5b828203905092915050565b600081905092915050565b600061549560008361547d565b91506154a0826151c1565b600082019050919050565b60006154b682615488565b9150819050919050565b7f4572726f7220696e2053656e6400000000000000000000000000000000000000600082015250565b60006154f6600d83615115565b9150615501826154c0565b602082019050919050565b60006020820190508181036000830152615525816154e9565b9050919050565b600061553782614702565b91507fffffffffffffffffffffffffffffffffffffffffffffffffffffffffffffffff82141561556a57615569615207565b5b600182019050919050565b7f416c726561647920726571756573746564000000000000000000000000000000600082015250565b60006155ab601183615115565b91506155b682615575565b602082019050919050565b600060208201905081810360008301526155da8161559e565b9050919050565b7f4e6f206465706f73697420796574210000000000000000000000000000000000600082015250565b6000615617600f83615115565b9150615622826155e1565b602082019050919050565b600060208201905081810360008301526156468161560a565b9050919050565b7f4d7573742075736520454f410000000000000000000000000000000000000000600082015250565b6000615683600c83615115565b915061568e8261564d565b602082019050919050565b600060208201905081810360008301526156b281615676565b9050919050565b7f496e76616c6964207369676e61746f727920636f756e74000000000000000000600082015250565b60006156ef601783615115565b91506156fa826156b9565b602082019050919050565b6000602082019050818103600083015261571e816156e2565b9050919050565b600061573082614635565b915061573b83614635565b92508260ff0382111561575157615750615207565b5b828201905092915050565b7f416c726561647920766f74656400000000000000000000000000000000000000600082015250565b6000615792600d83615115565b915061579d8261575c565b602082019050919050565b600060208201905081810360008301526157c181615785565b9050919050565b600081905092915050565b7f416363657373436f6e74726f6c3a206163636f756e7420000000000000000000600082015250565b60006158096017836157c8565b9150615814826157d3565b601782019050919050565b600061582a8261471b565b61583481856157c8565b9350615844818560208601614737565b80840191505092915050565b7f206973206d697373696e6720726f6c6520000000000000000000000000000000600082015250565b60006158866011836157c8565b915061589182615850565b601182019050919050565b60006158a7826157fc565b91506158b3828561581f565b91506158be82615879565b91506158ca828461581f565b91508190509392505050565b60006158e18261471b565b6158eb8185615115565b93506158fb818560208601614737565b6159048161476a565b840191505092915050565b6000602082019050818103600083015261592981846158d6565b905092915050565b7f5061757361626c653a206e6f7420706175736564000000000000000000000000600082015250565b6000615967601483615115565b915061597282615931565b602082019050919050565b600060208201905081810360008301526159968161595a565b9050919050565b7f5061757361626c653a2070617573656400000000000000000000000000000000600082015250565b60006159d3601083615115565b91506159de8261599d565b602082019050919050565b60006020820190508181036000830152615a02816159c6565b9050919050565b6000615a1482614702565b9150615a1f83614702565b9250817fffffffffffffffffffffffffffffffffffffffffffffffffffffffffffffffff0483118215151615615a5857615a57615207565b5b828202905092915050565b7f4e487b7100000000000000000000000000000000000000000000000000000000600052604160045260246000fd5b6000615a9d82614702565b91506000821415615ab157615ab0615207565b5b600182039050919050565b7f537472696e67733a20686578206c656e67746820696e73756666696369656e74600082015250565b6000615af2602083615115565b9150615afd82615abc565b602082019050919050565b60006020820190508181036000830152615b2181615ae5565b905091905056fea2646970667358221220c6253b78b9c277b69cee0e815ac6406d008b42f208cd31f64506cedf56bdac8b64736f6c63430008090033",
  "linkReferences": {},
  "deployedLinkReferences": {}
}